{
  "_format": "hh-sol-artifact-1",
  "contractName": "AstarWeb3Domain",
  "sourceName": "contracts/AstarWeb3Domain.sol",
  "abi": [
    {
      "inputs": [],
      "stateMutability": "nonpayable",
      "type": "constructor"
    },
    {
      "anonymous": false,
      "inputs": [
        {
          "indexed": true,
          "internalType": "address",
          "name": "owner",
          "type": "address"
        },
        {
          "indexed": true,
          "internalType": "address",
          "name": "approved",
          "type": "address"
        },
        {
          "indexed": true,
          "internalType": "uint256",
          "name": "tokenId",
          "type": "uint256"
        }
      ],
      "name": "Approval",
      "type": "event"
    },
    {
      "anonymous": false,
      "inputs": [
        {
          "indexed": true,
          "internalType": "address",
          "name": "owner",
          "type": "address"
        },
        {
          "indexed": true,
          "internalType": "address",
          "name": "operator",
          "type": "address"
        },
        {
          "indexed": false,
          "internalType": "bool",
          "name": "approved",
          "type": "bool"
        }
      ],
      "name": "ApprovalForAll",
      "type": "event"
    },
    {
      "anonymous": false,
      "inputs": [
        {
          "indexed": true,
          "internalType": "uint256",
          "name": "tokenId",
          "type": "uint256"
        },
        {
          "indexed": true,
          "internalType": "address",
          "name": "resolver",
          "type": "address"
        }
      ],
      "name": "NewResolver",
      "type": "event"
    },
    {
      "anonymous": false,
      "inputs": [
        {
          "indexed": true,
          "internalType": "uint256",
          "name": "tokenId",
          "type": "uint256"
        },
        {
          "indexed": true,
          "internalType": "address",
          "name": "router",
          "type": "address"
        }
      ],
      "name": "NewRouter",
      "type": "event"
    },
    {
      "anonymous": false,
      "inputs": [
        {
          "indexed": true,
          "internalType": "uint256",
          "name": "tokenId",
          "type": "uint256"
        },
        {
          "indexed": false,
          "internalType": "string",
          "name": "tokenUri",
          "type": "string"
        }
      ],
      "name": "NewURI",
      "type": "event"
    },
    {
      "anonymous": false,
      "inputs": [
        {
          "indexed": true,
          "internalType": "address",
          "name": "previousOwner",
          "type": "address"
        },
        {
          "indexed": true,
          "internalType": "address",
          "name": "newOwner",
          "type": "address"
        }
      ],
      "name": "OwnershipTransferred",
      "type": "event"
    },
    {
      "anonymous": false,
      "inputs": [
        {
          "indexed": true,
          "internalType": "address",
          "name": "from",
          "type": "address"
        },
        {
          "indexed": true,
          "internalType": "address",
          "name": "to",
          "type": "address"
        },
        {
          "indexed": true,
          "internalType": "uint256",
          "name": "tokenId",
          "type": "uint256"
        }
      ],
      "name": "Transfer",
      "type": "event"
    },
    {
      "inputs": [],
      "name": "_saleIsActive",
      "outputs": [
        {
          "internalType": "bool",
          "name": "",
          "type": "bool"
        }
      ],
      "stateMutability": "view",
      "type": "function"
    },
    {
      "inputs": [
        {
          "internalType": "uint256",
          "name": "",
          "type": "uint256"
        }
      ],
      "name": "_tokenURIs",
      "outputs": [
        {
          "internalType": "string",
          "name": "",
          "type": "string"
        }
      ],
      "stateMutability": "view",
      "type": "function"
    },
    {
      "inputs": [
        {
          "internalType": "address",
          "name": "to",
          "type": "address"
        },
        {
          "internalType": "uint256",
          "name": "tokenId",
          "type": "uint256"
        }
      ],
      "name": "approve",
      "outputs": [],
      "stateMutability": "nonpayable",
      "type": "function"
    },
    {
      "inputs": [
        {
          "internalType": "address",
          "name": "owner",
          "type": "address"
        }
      ],
      "name": "balanceOf",
      "outputs": [
        {
          "internalType": "uint256",
          "name": "",
          "type": "uint256"
        }
      ],
      "stateMutability": "view",
      "type": "function"
    },
    {
      "inputs": [
        {
          "internalType": "uint256",
          "name": "tokenId",
          "type": "uint256"
        }
      ],
      "name": "burn",
      "outputs": [],
      "stateMutability": "nonpayable",
      "type": "function"
    },
    {
      "inputs": [
        {
          "internalType": "uint256",
          "name": "tokenId",
          "type": "uint256"
        },
        {
          "internalType": "string",
          "name": "sub",
          "type": "string"
        }
      ],
      "name": "burnSubDomain",
      "outputs": [],
      "stateMutability": "nonpayable",
      "type": "function"
    },
    {
      "inputs": [
        {
          "internalType": "string",
          "name": "domain",
          "type": "string"
        }
      ],
      "name": "buyDomain",
      "outputs": [],
      "stateMutability": "payable",
      "type": "function"
    },
    {
      "inputs": [
        {
          "internalType": "uint256",
          "name": "tokenId",
          "type": "uint256"
        }
      ],
      "name": "exists",
      "outputs": [
        {
          "internalType": "bool",
          "name": "",
          "type": "bool"
        }
      ],
      "stateMutability": "view",
      "type": "function"
    },
    {
      "inputs": [
        {
          "internalType": "string",
          "name": "label",
          "type": "string"
        }
      ],
      "name": "genTokenId",
      "outputs": [
        {
          "internalType": "uint256",
          "name": "",
          "type": "uint256"
        }
      ],
      "stateMutability": "pure",
      "type": "function"
    },
    {
      "inputs": [
        {
          "internalType": "uint256",
          "name": "tokenId",
          "type": "uint256"
        }
      ],
      "name": "getApproved",
      "outputs": [
        {
          "internalType": "address",
          "name": "",
          "type": "address"
        }
      ],
      "stateMutability": "view",
      "type": "function"
    },
    {
      "inputs": [
        {
          "internalType": "string",
          "name": "domain",
          "type": "string"
        }
      ],
      "name": "getOwner",
      "outputs": [
        {
          "internalType": "address",
          "name": "",
          "type": "address"
        }
      ],
      "stateMutability": "view",
      "type": "function"
    },
    {
      "inputs": [],
      "name": "getPrice",
      "outputs": [
        {
          "internalType": "uint256",
          "name": "",
          "type": "uint256"
        }
      ],
      "stateMutability": "view",
      "type": "function"
    },
    {
      "inputs": [],
      "name": "getTLD",
      "outputs": [
        {
          "internalType": "string",
          "name": "",
          "type": "string"
        }
      ],
      "stateMutability": "view",
      "type": "function"
    },
    {
      "inputs": [
        {
          "internalType": "address",
          "name": "account",
          "type": "address"
        }
      ],
      "name": "grantMinterRole",
      "outputs": [],
      "stateMutability": "nonpayable",
      "type": "function"
    },
    {
      "inputs": [
        {
          "internalType": "address",
          "name": "account",
          "type": "address"
        }
      ],
      "name": "hasRole",
      "outputs": [
        {
          "internalType": "bool",
          "name": "",
          "type": "bool"
        }
      ],
      "stateMutability": "view",
      "type": "function"
    },
    {
      "inputs": [
        {
          "internalType": "address",
          "name": "owner",
          "type": "address"
        },
        {
          "internalType": "address",
          "name": "operator",
          "type": "address"
        }
      ],
      "name": "isApprovedForAll",
      "outputs": [
        {
          "internalType": "bool",
          "name": "",
          "type": "bool"
        }
      ],
      "stateMutability": "view",
      "type": "function"
    },
    {
      "inputs": [
        {
          "internalType": "address",
          "name": "account",
          "type": "address"
        },
        {
          "internalType": "uint256",
          "name": "tokenId",
          "type": "uint256"
        }
      ],
      "name": "isApprovedOrOwner",
      "outputs": [
        {
          "internalType": "bool",
          "name": "",
          "type": "bool"
        }
      ],
      "stateMutability": "view",
      "type": "function"
    },
    {
      "inputs": [],
      "name": "name",
      "outputs": [
        {
          "internalType": "string",
          "name": "",
          "type": "string"
        }
      ],
      "stateMutability": "view",
      "type": "function"
    },
    {
      "inputs": [],
      "name": "owner",
      "outputs": [
        {
          "internalType": "address",
          "name": "",
          "type": "address"
        }
      ],
      "stateMutability": "view",
      "type": "function"
    },
    {
      "inputs": [
        {
          "internalType": "uint256",
          "name": "tokenId",
          "type": "uint256"
        }
      ],
      "name": "ownerOf",
      "outputs": [
        {
          "internalType": "address",
          "name": "",
          "type": "address"
        }
      ],
      "stateMutability": "view",
      "type": "function"
    },
    {
      "inputs": [
        {
          "internalType": "address",
          "name": "to",
          "type": "address"
        },
        {
          "internalType": "string",
          "name": "domain",
          "type": "string"
        }
      ],
      "name": "registerDomain",
      "outputs": [],
      "stateMutability": "nonpayable",
      "type": "function"
    },
    {
      "inputs": [
        {
          "internalType": "address",
          "name": "to",
          "type": "address"
        },
        {
          "internalType": "uint256",
          "name": "tokenId",
          "type": "uint256"
        },
        {
          "internalType": "string",
          "name": "sub",
          "type": "string"
        }
      ],
      "name": "registerSubDomain",
      "outputs": [],
      "stateMutability": "nonpayable",
      "type": "function"
    },
    {
      "inputs": [],
      "name": "renounceOwnership",
      "outputs": [],
      "stateMutability": "nonpayable",
      "type": "function"
    },
    {
      "inputs": [
        {
          "internalType": "uint256",
          "name": "tokenId",
          "type": "uint256"
        }
      ],
      "name": "resolverOf",
      "outputs": [
        {
          "internalType": "address",
          "name": "",
          "type": "address"
        }
      ],
      "stateMutability": "view",
      "type": "function"
    },
    {
      "inputs": [
        {
          "internalType": "address",
          "name": "account",
          "type": "address"
        }
      ],
      "name": "revokeMinterRole",
      "outputs": [],
      "stateMutability": "nonpayable",
      "type": "function"
    },
    {
      "inputs": [
        {
          "internalType": "address",
          "name": "from",
          "type": "address"
        },
        {
          "internalType": "address",
          "name": "to",
          "type": "address"
        },
        {
          "internalType": "uint256",
          "name": "tokenId",
          "type": "uint256"
        }
      ],
      "name": "safeTransferFrom",
      "outputs": [],
      "stateMutability": "nonpayable",
      "type": "function"
    },
    {
      "inputs": [
        {
          "internalType": "address",
          "name": "from",
          "type": "address"
        },
        {
          "internalType": "address",
          "name": "to",
          "type": "address"
        },
        {
          "internalType": "uint256",
          "name": "tokenId",
          "type": "uint256"
        },
        {
          "internalType": "bytes",
          "name": "_data",
          "type": "bytes"
        }
      ],
      "name": "safeTransferFrom",
      "outputs": [],
      "stateMutability": "nonpayable",
      "type": "function"
    },
    {
      "inputs": [
        {
          "internalType": "address",
          "name": "operator",
          "type": "address"
        },
        {
          "internalType": "bool",
          "name": "approved",
          "type": "bool"
        }
      ],
      "name": "setApprovalForAll",
      "outputs": [],
      "stateMutability": "nonpayable",
      "type": "function"
    },
    {
      "inputs": [
        {
          "internalType": "string",
          "name": "_uri",
          "type": "string"
        }
      ],
      "name": "setBaseURI",
      "outputs": [],
      "stateMutability": "nonpayable",
      "type": "function"
    },
    {
      "inputs": [
        {
          "internalType": "address",
          "name": "to",
          "type": "address"
        },
        {
          "internalType": "uint256",
          "name": "tokenId",
          "type": "uint256"
        }
      ],
      "name": "setOwner",
      "outputs": [],
      "stateMutability": "nonpayable",
      "type": "function"
    },
    {
      "inputs": [
        {
          "internalType": "uint256",
          "name": "price",
          "type": "uint256"
        }
      ],
      "name": "setPrice",
      "outputs": [],
      "stateMutability": "nonpayable",
      "type": "function"
    },
    {
      "inputs": [
        {
          "internalType": "uint256",
          "name": "tokenId",
          "type": "uint256"
        },
        {
          "internalType": "address",
          "name": "resolver",
          "type": "address"
        }
      ],
      "name": "setResolver",
      "outputs": [],
      "stateMutability": "nonpayable",
      "type": "function"
    },
    {
      "inputs": [],
      "name": "setSaleState",
      "outputs": [],
      "stateMutability": "nonpayable",
      "type": "function"
    },
    {
      "inputs": [
        {
          "internalType": "string",
          "name": "_tld",
          "type": "string"
        }
      ],
      "name": "setTLD",
      "outputs": [],
      "stateMutability": "nonpayable",
      "type": "function"
    },
    {
      "inputs": [
        {
          "internalType": "uint256",
          "name": "tokenId",
          "type": "uint256"
        },
        {
          "internalType": "uint256",
          "name": "index",
          "type": "uint256"
        }
      ],
      "name": "subTokenIdByIndex",
      "outputs": [
        {
          "internalType": "uint256",
          "name": "",
          "type": "uint256"
        }
      ],
      "stateMutability": "view",
      "type": "function"
    },
    {
      "inputs": [
        {
          "internalType": "uint256",
          "name": "tokenId",
          "type": "uint256"
        }
      ],
      "name": "subTokenIdCount",
      "outputs": [
        {
          "internalType": "uint256",
          "name": "",
          "type": "uint256"
        }
      ],
      "stateMutability": "view",
      "type": "function"
    },
    {
      "inputs": [
        {
          "internalType": "bytes4",
          "name": "interfaceId",
          "type": "bytes4"
        }
      ],
      "name": "supportsInterface",
      "outputs": [
        {
          "internalType": "bool",
          "name": "",
          "type": "bool"
        }
      ],
      "stateMutability": "view",
      "type": "function"
    },
    {
      "inputs": [],
      "name": "symbol",
      "outputs": [
        {
          "internalType": "string",
          "name": "",
          "type": "string"
        }
      ],
      "stateMutability": "view",
      "type": "function"
    },
    {
      "inputs": [
        {
          "internalType": "uint256",
          "name": "index",
          "type": "uint256"
        }
      ],
      "name": "tokenByIndex",
      "outputs": [
        {
          "internalType": "uint256",
          "name": "",
          "type": "uint256"
        }
      ],
      "stateMutability": "view",
      "type": "function"
    },
    {
      "inputs": [
        {
          "internalType": "address",
          "name": "owner",
          "type": "address"
        },
        {
          "internalType": "uint256",
          "name": "index",
          "type": "uint256"
        }
      ],
      "name": "tokenOfOwnerByIndex",
      "outputs": [
        {
          "internalType": "uint256",
          "name": "",
          "type": "uint256"
        }
      ],
      "stateMutability": "view",
      "type": "function"
    },
    {
      "inputs": [
        {
          "internalType": "uint256",
          "name": "tokenId",
          "type": "uint256"
        }
      ],
      "name": "tokenURI",
      "outputs": [
        {
          "internalType": "string",
          "name": "",
          "type": "string"
        }
      ],
      "stateMutability": "view",
      "type": "function"
    },
    {
      "inputs": [],
      "name": "totalSupply",
      "outputs": [
        {
          "internalType": "uint256",
          "name": "",
          "type": "uint256"
        }
      ],
      "stateMutability": "view",
      "type": "function"
    },
    {
      "inputs": [
        {
          "internalType": "address",
          "name": "from",
          "type": "address"
        },
        {
          "internalType": "address",
          "name": "to",
          "type": "address"
        },
        {
          "internalType": "uint256",
          "name": "tokenId",
          "type": "uint256"
        }
      ],
      "name": "transferFrom",
      "outputs": [],
      "stateMutability": "nonpayable",
      "type": "function"
    },
    {
      "inputs": [
        {
          "internalType": "address",
          "name": "newOwner",
          "type": "address"
        }
      ],
      "name": "transferOwnership",
      "outputs": [],
      "stateMutability": "nonpayable",
      "type": "function"
    },
    {
      "inputs": [],
      "name": "withdraw",
      "outputs": [],
      "stateMutability": "payable",
      "type": "function"
    }
  ],
  "bytecode": "0x60a06040819052600060808190526200001b91600f9162000286565b506040805160208101918290526000908190526200003c9160109162000286565b506011805460ff19166001179055670de0b6b3a76400006012553480156200006357600080fd5b50604080518082018252601981527f4173746172205765623320446f6d61696e20282e617374722900000000000000602080830191825283518085019094526004845263105395d160e21b908401528151919291620000c59160009162000286565b508051620000db90600190602084019062000286565b505050620000f8620000f26200010960201b60201c565b6200010d565b62000103336200015f565b62000369565b3390565b600a80546001600160a01b038381166001600160a01b0319831681179093556040519116919082907f8be0079c531659141344cd1fd0a4f28419497f9722a3daafe3b4186f6b6457e090600090a35050565b6200017a81600b6200017d60201b62001a731790919060201c565b50565b62000189828262000201565b15620001dc5760405162461bcd60e51b815260206004820152601f60248201527f526f6c65733a206163636f756e7420616c72656164792068617320726f6c650060448201526064015b60405180910390fd5b6001600160a01b0316600090815260209190915260409020805460ff19166001179055565b60006001600160a01b038216620002665760405162461bcd60e51b815260206004820152602260248201527f526f6c65733a206163636f756e7420697320746865207a65726f206164647265604482015261737360f01b6064820152608401620001d3565b506001600160a01b03166000908152602091909152604090205460ff1690565b82805462000294906200032c565b90600052602060002090601f016020900481019282620002b8576000855562000303565b82601f10620002d357805160ff191683800117855562000303565b8280016001018555821562000303579182015b8281111562000303578251825591602001919060010190620002e6565b506200031192915062000315565b5090565b5b8082111562000311576000815560010162000316565b600181811c908216806200034157607f821691505b602082108114156200036357634e487b7160e01b600052602260045260246000fd5b50919050565b61372c80620003796000396000f3fe6080604052600436106102725760003560e01c80635d893ba01161014f57806398a60243116100c1578063b88d4fde1161007a578063b88d4fde14610723578063bc7b6d6214610743578063c479a80414610763578063c87b56dd14610783578063e985e9c5146107a3578063f2fde38b146107ec57600080fd5b806398a602431461066e57806398d5fdca1461068e578063a22cb465146106a3578063ab3b87fe146106c3578063ad59e226146106e3578063b3f9e4cb1461070357600080fd5b806376f909ae1161011357806376f909ae146105c65780637ef09bca146105e65780638da5cb5b146106065780638f55ee791461062457806391b7f5ed1461063957806395d89b411461065957600080fd5b80635d893ba0146105375780636352211e1461055157806369e2f0fb1461057157806370a0823114610591578063715018a6146105b157600080fd5b80633ccfd60b116101e85780634aaf4a12116101ac5780634aaf4a12146104775780634f558e79146104975780634f6ccce7146104b75780635040ddf2146104d757806350b3a144146104f757806355f804b31461051757600080fd5b80633ccfd60b146103ef5780633dd1eb61146103f757806342842e0e1461041757806342966c6814610437578063430c20811461045757600080fd5b806318160ddd1161023a57806318160ddd146103485780631c3b028e146103675780631ed405591461037a57806323b872dd1461038f5780632dc50d9a146103af5780632f745c59146103cf57600080fd5b806301ffc9a71461027757806306fdde03146102ac578063081812fc146102ce578063095ea7b3146103065780630bb78ec114610328575b600080fd5b34801561028357600080fd5b50610297610292366004612f19565b61080c565b60405190151581526020015b60405180910390f35b3480156102b857600080fd5b506102c161081d565b6040516102a39190612f8e565b3480156102da57600080fd5b506102ee6102e9366004612fa1565b6108af565b6040516001600160a01b0390911681526020016102a3565b34801561031257600080fd5b50610326610321366004612fd6565b61093c565b005b34801561033457600080fd5b506102c1610343366004612fa1565b610a52565b34801561035457600080fd5b506008545b6040519081526020016102a3565b6103266103753660046130ac565b610aec565b34801561038657600080fd5b50610326610e2a565b34801561039b57600080fd5b506103266103aa3660046130e1565b610e68565b3480156103bb57600080fd5b506103596103ca36600461311d565b610e9a565b3480156103db57600080fd5b506103596103ea366004612fd6565b610ecf565b610326610f65565b34801561040357600080fd5b5061032661041236600461313f565b610fb5565b34801561042357600080fd5b506103266104323660046130e1565b610feb565b34801561044357600080fd5b50610326610452366004612fa1565b611006565b34801561046357600080fd5b50610297610472366004612fd6565b6110ee565b34801561048357600080fd5b506102ee6104923660046130ac565b6110fa565b3480156104a357600080fd5b506102976104b2366004612fa1565b611147565b3480156104c357600080fd5b506103596104d2366004612fa1565b611152565b3480156104e357600080fd5b506103266104f236600461315a565b6111e5565b34801561050357600080fd5b506103596105123660046130ac565b61141c565b34801561052357600080fd5b506103266105323660046130ac565b61145c565b34801561054357600080fd5b506011546102979060ff1681565b34801561055d57600080fd5b506102ee61056c366004612fa1565b61149d565b34801561057d57600080fd5b5061032661058c36600461313f565b611514565b34801561059d57600080fd5b506103596105ac36600461313f565b611547565b3480156105bd57600080fd5b506103266115ce565b3480156105d257600080fd5b506103596105e1366004612fa1565b611602565b3480156105f257600080fd5b5061029761060136600461313f565b61162d565b34801561061257600080fd5b50600a546001600160a01b03166102ee565b34801561063057600080fd5b506102c161163a565b34801561064557600080fd5b50610326610654366004612fa1565b611649565b34801561066557600080fd5b506102c1611678565b34801561067a57600080fd5b506103266106893660046131a8565b611687565b34801561069a57600080fd5b50601254610359565b3480156106af57600080fd5b506103266106be3660046131ff565b6116bb565b3480156106cf57600080fd5b506103266106de366004612fd6565b611780565b3480156106ef57600080fd5b506103266106fe3660046130ac565b6117a6565b34801561070f57600080fd5b506102ee61071e366004612fa1565b6117e3565b34801561072f57600080fd5b5061032661073e36600461323b565b611805565b34801561074f57600080fd5b5061032661075e3660046132b7565b611837565b34801561076f57600080fd5b5061032661077e3660046132e3565b611854565b34801561078f57600080fd5b506102c161079e366004612fa1565b611871565b3480156107af57600080fd5b506102976107be366004613314565b6001600160a01b03918216600090815260056020908152604080832093909416825291909152205460ff1690565b3480156107f857600080fd5b5061032661080736600461313f565b6119db565b600061081782611aef565b92915050565b60606000805461082c9061333e565b80601f01602080910402602001604051908101604052809291908181526020018280546108589061333e565b80156108a55780601f1061087a576101008083540402835291602001916108a5565b820191906000526020600020905b81548152906001019060200180831161088857829003601f168201915b5050505050905090565b60006108ba82611b14565b6109205760405162461bcd60e51b815260206004820152602c60248201527f4552433732313a20617070726f76656420717565727920666f72206e6f6e657860448201526b34b9ba32b73a103a37b5b2b760a11b60648201526084015b60405180910390fd5b506000908152600460205260409020546001600160a01b031690565b60006109478261149d565b9050806001600160a01b0316836001600160a01b031614156109b55760405162461bcd60e51b815260206004820152602160248201527f4552433732313a20617070726f76616c20746f2063757272656e74206f776e656044820152603960f91b6064820152608401610917565b336001600160a01b03821614806109d157506109d181336107be565b610a435760405162461bcd60e51b815260206004820152603860248201527f4552433732313a20617070726f76652063616c6c6572206973206e6f74206f7760448201527f6e6572206e6f7220617070726f76656420666f7220616c6c00000000000000006064820152608401610917565b610a4d8383611b31565b505050565b600d6020526000908152604090208054610a6b9061333e565b80601f0160208091040260200160405190810160405280929190818152602001828054610a979061333e565b8015610ae45780601f10610ab957610100808354040283529160200191610ae4565b820191906000526020600020905b815481529060010190602001808311610ac757829003601f168201915b505050505081565b60115460ff16610b3e5760405162461bcd60e51b815260206004820152601a60248201527f53616c65206d7573742062652061637469766520746f206275790000000000006044820152606401610917565b8051610b875760405162461bcd60e51b8152602060048201526018602482015277446f6d61696e206d757374206265206e6f6e2d656d70747960401b6044820152606401610917565b601254341015610bf75760405162461bcd60e51b815260206004820152603560248201527f496e73756666696369656e7420546f6b656e206f7220546f6b656e2076616c7560448201527419481cd95b9d081a5cc81b9bdd0818dbdc9c9958dd605a1b6064820152608401610917565b6000610c0282611b9f565b90506000610c0f82611d02565b90506001811115610c60576001811115610c605760405162461bcd60e51b8152602060048201526012602482015271111bdb585a5b881b9bdd081cdd5c1c1bdc9d60721b6044820152606401610917565b80610d5c5760108054610c729061333e565b15159050610c925760405162461bcd60e51b815260040161091790613379565b6000610d288360108054610ca59061333e565b80601f0160208091040260200160405190810160405280929190818152602001828054610cd19061333e565b8015610d1e5780601f10610cf357610100808354040283529160200191610d1e565b820191906000526020600020905b815481529060010190602001808311610d0157829003601f168201915b5050505050611d61565b9050806000191415610d5a57826010604051602001610d48929190613455565b60405160208183030381529060405292505b505b600082604051602001610d6f919061347c565b6040516020818303038152906040528051906020012060001c9050610d9381611b14565b15610dd85760405162461bcd60e51b8152602060048201526015602482015274446f6d61696e20616c72656164792065786973747360581b6044820152606401610917565b610de23382611ed4565b610dec8184611eee565b807fc5beef08f693b11c316c0c8394a377a0033c9cf701b8cd8afd79cecef60c395284604051610e1c9190612f8e565b60405180910390a250505050565b600a546001600160a01b03163314610e545760405162461bcd60e51b815260040161091790613498565b6011805460ff19811660ff90911615179055565b610e73335b82611f77565b610e8f5760405162461bcd60e51b8152600401610917906134cd565b610a4d83838361205d565b600081610ea684611602565b11610eb057600080fd5b6000838152600c60205260409020610ec89083612208565b9392505050565b6000610eda83611547565b8210610f3c5760405162461bcd60e51b815260206004820152602b60248201527f455243373231456e756d657261626c653a206f776e657220696e646578206f7560448201526a74206f6620626f756e647360a81b6064820152608401610917565b506001600160a01b03919091166000908152600660209081526040808320938352929052205490565b600a546001600160a01b03163314610f8f5760405162461bcd60e51b815260040161091790613498565b60405133904780156108fc02916000818181858888f19350505050610fb357600080fd5b565b600a546001600160a01b03163314610fdf5760405162461bcd60e51b815260040161091790613498565b610fe881612214565b50565b610a4d83838360405180602001604052806000815250611805565b61100f33610e6d565b6110745760405162461bcd60e51b815260206004820152603060248201527f4552433732314275726e61626c653a2063616c6c6572206973206e6f74206f7760448201526f1b995c881b9bdc88185c1c1c9bdd995960821b6064820152608401610917565b6000818152600d60205260409020805461108d9061333e565b1590506110ab576000818152600d602052604081206110ab91612e30565b6000818152600e60205260409020546001600160a01b0316156110e5576000818152600e6020526040902080546001600160a01b03191690555b610fe88161221f565b6000610ec88383611f77565b60008061110683611b9f565b905060008160405160200161111b919061347c565b6040516020818303038152906040528051906020012060001c905061113f8161149d565b949350505050565b600061081782611b14565b600061115d60085490565b82106111c05760405162461bcd60e51b815260206004820152602c60248201527f455243373231456e756d657261626c653a20676c6f62616c20696e646578206f60448201526b7574206f6620626f756e647360a01b6064820152608401610917565b600882815481106111d3576111d361351e565b90600052602060002001549050919050565b600a546001600160a01b0316331461120f5760405162461bcd60e51b815260040161091790613498565b6001600160a01b03821661122257600080fd5b805161126b5760405162461bcd60e51b8152602060048201526018602482015277446f6d61696e206d757374206265206e6f6e2d656d70747960401b6044820152606401610917565b600061127682611b9f565b9050600061128382611d02565b905060018111156112d45760018111156112d45760405162461bcd60e51b8152602060048201526012602482015271111bdb585a5b881b9bdd081cdd5c1c1bdc9d60721b6044820152606401610917565b8061134d57601080546112e69061333e565b151590506113065760405162461bcd60e51b815260040161091790613379565b60006113198360108054610ca59061333e565b905080600019141561134b57826010604051602001611339929190613455565b60405160208183030381529060405292505b505b600082604051602001611360919061347c565b6040516020818303038152906040528051906020012060001c905061138481611b14565b156113c95760405162461bcd60e51b8152602060048201526015602482015274446f6d61696e20616c72656164792065786973747360581b6044820152606401610917565b6113d38582611ed4565b6113dd8184611eee565b807fc5beef08f693b11c316c0c8394a377a0033c9cf701b8cd8afd79cecef60c39528460405161140d9190612f8e565b60405180910390a25050505050565b600081516000141561142d57600080fd5b8160405160200161143e919061347c565b60408051601f19818403018152919052805160209091012092915050565b600a546001600160a01b031633146114865760405162461bcd60e51b815260040161091790613498565b805161149990600f906020840190612e6a565b5050565b6000818152600260205260408120546001600160a01b0316806108175760405162461bcd60e51b815260206004820152602960248201527f4552433732313a206f776e657220717565727920666f72206e6f6e657869737460448201526832b73a103a37b5b2b760b91b6064820152608401610917565b600a546001600160a01b0316331461153e5760405162461bcd60e51b815260040161091790613498565b610fe8816122c6565b60006001600160a01b0382166115b25760405162461bcd60e51b815260206004820152602a60248201527f4552433732313a2062616c616e636520717565727920666f7220746865207a65604482015269726f206164647265737360b01b6064820152608401610917565b506001600160a01b031660009081526003602052604090205490565b600a546001600160a01b031633146115f85760405162461bcd60e51b815260040161091790613498565b610fb360006122d1565b600061160d82611b14565b61161657600080fd5b6000828152600c6020526040902061081790612323565b6000610817600b8361232d565b60606010805461082c9061333e565b600a546001600160a01b031633146116735760405162461bcd60e51b815260040161091790613498565b601255565b60606001805461082c9061333e565b8161169133610e6d565b61169a57600080fd5b6116b5848484604051806020016040528060008152506123b0565b50505050565b6001600160a01b0382163314156117145760405162461bcd60e51b815260206004820152601960248201527f4552433732313a20617070726f766520746f2063616c6c6572000000000000006044820152606401610917565b3360008181526005602090815260408083206001600160a01b03871680855290835292819020805460ff191686151590811790915590519081529192917f17307eab39ab6107e8899845ad3d59bd9653f200f220920489ca2b5937696c31910160405180910390a35050565b8061178a33610e6d565b61179357600080fd5b610a4d61179f8361149d565b848461205d565b600a546001600160a01b031633146117d05760405162461bcd60e51b815260040161091790613498565b8051611499906010906020840190612e6a565b6000818152600e60205260408120546001600160a01b03168061081757600080fd5b61180f3383611f77565b61182b5760405162461bcd60e51b8152600401610917906134cd565b6116b58484848461257d565b8161184133610e6d565b61184a57600080fd5b610a4d83836125b0565b8161185e33610e6d565b61186757600080fd5b610a4d838361261b565b606061187c82611b14565b6118e05760405162461bcd60e51b815260206004820152602f60248201527f4552433732314d657461646174613a2055524920717565727920666f72206e6f60448201526e3732bc34b9ba32b73a103a37b5b2b760891b6064820152608401610917565b6000828152600d6020526040812080546118f99061333e565b80601f01602080910402602001604051908101604052809291908181526020018280546119259061333e565b80156119725780601f1061194757610100808354040283529160200191611972565b820191906000526020600020905b81548152906001019060200180831161195557829003601f168201915b505050505090506000611983612708565b9050805160001415611996575092915050565b8151156119c85780826040516020016119b0929190613534565b60405160208183030381529060405292505050919050565b80846040516020016119b0929190613563565b600a546001600160a01b03163314611a055760405162461bcd60e51b815260040161091790613498565b6001600160a01b038116611a6a5760405162461bcd60e51b815260206004820152602660248201527f4f776e61626c653a206e6577206f776e657220697320746865207a65726f206160448201526564647265737360d01b6064820152608401610917565b610fe8816122d1565b611a7d828261232d565b15611aca5760405162461bcd60e51b815260206004820152601f60248201527f526f6c65733a206163636f756e7420616c72656164792068617320726f6c65006044820152606401610917565b6001600160a01b0316600090815260209190915260409020805460ff19166001179055565b60006001600160e01b0319821663780e9d6360e01b1480610817575061081782612717565b6000908152600260205260409020546001600160a01b0316151590565b600081815260046020526040902080546001600160a01b0319166001600160a01b0384169081179091558190611b668261149d565b6001600160a01b03167f8c5be1e5ebec7d5bd14f71427d1e84f3dd0314c0f7b2291e5b200ac8c7c3b92560405160405180910390a45050565b606060008290506000815167ffffffffffffffff811115611bc257611bc2613000565b6040519080825280601f01601f191660200182016040528015611bec576020820181803683370190505b50905060005b8251811015611cfa576041838281518110611c0f57611c0f61351e565b016020015160f81c10801590611c3f5750605a838281518110611c3457611c3461351e565b016020015160f81c11155b15611ca157828181518110611c5657611c5661351e565b602001015160f81c60f81b60f81c6020611c70919061359b565b60f81b828281518110611c8557611c8561351e565b60200101906001600160f81b031916908160001a905350611ce8565b828181518110611cb357611cb361351e565b602001015160f81c60f81b828281518110611cd057611cd061351e565b60200101906001600160f81b031916908160001a9053505b80611cf2816135c0565b915050611bf2565b509392505050565b805160009060018381019184010182805b82841015611d5857835160ff16602e811415611d3757611d346001846135db565b92505b611d426001866135db565b9450508080611d50906135c0565b915050611d13565b50949350505050565b81516000908390839060011180611d79575060018151105b80611d85575081518151115b15611d965760001992505050610817565b6fffffffffffffffffffffffffffffffff82511115611dbb5760001992505050610817565b6000805b8351811015611ec65782600081518110611ddb57611ddb61351e565b602001015160f81c60f81b6001600160f81b031916848281518110611e0257611e0261351e565b01602001516001600160f81b0319161415611eb457600191505b825182108015611e3557508351611e3383836135db565b105b8015611e895750828281518110611e4e57611e4e61351e565b01602001516001600160f81b03191684611e6884846135db565b81518110611e7857611e7861351e565b01602001516001600160f81b031916145b15611ea05781611e98816135c0565b925050611e1c565b8251821415611eb457935061081792505050565b80611ebe816135c0565b915050611dbf565b506000199350505050610817565b611499828260405180602001604052806000815250612767565b611ef782611b14565b611f585760405162461bcd60e51b815260206004820152602c60248201527f4552433732314d657461646174613a2055524920736574206f66206e6f6e657860448201526b34b9ba32b73a103a37b5b2b760a11b6064820152608401610917565b6000828152600d602090815260409091208251610a4d92840190612e6a565b6000611f8282611b14565b611fe35760405162461bcd60e51b815260206004820152602c60248201527f4552433732313a206f70657261746f7220717565727920666f72206e6f6e657860448201526b34b9ba32b73a103a37b5b2b760a11b6064820152608401610917565b6000611fee8361149d565b9050806001600160a01b0316846001600160a01b031614806120295750836001600160a01b031661201e846108af565b6001600160a01b0316145b8061113f57506001600160a01b0380821660009081526005602090815260408083209388168352929052205460ff1661113f565b826001600160a01b03166120708261149d565b6001600160a01b0316146120d85760405162461bcd60e51b815260206004820152602960248201527f4552433732313a207472616e73666572206f6620746f6b656e2074686174206960448201526839903737ba1037bbb760b91b6064820152608401610917565b6001600160a01b03821661213a5760405162461bcd60e51b8152602060048201526024808201527f4552433732313a207472616e7366657220746f20746865207a65726f206164646044820152637265737360e01b6064820152608401610917565b61214583838361279a565b612150600082611b31565b6001600160a01b03831660009081526003602052604081208054600192906121799084906135f3565b90915550506001600160a01b03821660009081526003602052604081208054600192906121a79084906135db565b909155505060008181526002602052604080822080546001600160a01b0319166001600160a01b0386811691821790925591518493918716917fddf252ad1be2c89b69c2b068fc378daa952ba7f163c4a11628f55a4df523b3ef91a4505050565b6000610ec883836127a5565b610fe8600b82611a73565b600061222a8261149d565b90506122388160008461279a565b612243600083611b31565b6001600160a01b038116600090815260036020526040812080546001929061226c9084906135f3565b909155505060008281526002602052604080822080546001600160a01b0319169055518391906001600160a01b038416907fddf252ad1be2c89b69c2b068fc378daa952ba7f163c4a11628f55a4df523b3ef908390a45050565b610fe8600b826127cf565b600a80546001600160a01b038381166001600160a01b0319831681179093556040519116919082907f8be0079c531659141344cd1fd0a4f28419497f9722a3daafe3b4186f6b6457e090600090a35050565b6000610817825490565b60006001600160a01b0382166123905760405162461bcd60e51b815260206004820152602260248201527f526f6c65733a206163636f756e7420697320746865207a65726f206164647265604482015261737360f01b6064820152608401610917565b506001600160a01b03166000908152602091909152604090205460ff1690565b6001600160a01b0384166123c357600080fd5b81516123ce57600080fd5b6123d782611d02565b156123e157600080fd5b6123ea83611b14565b6123f357600080fd5b60006123fe83611b9f565b9050600081600d600087815260200190815260200160002060405160200161242792919061360a565b604051602081830303815290604052905060006124438261141c565b905060006124eb600d600089815260200190815260200160002080546124689061333e565b80601f01602080910402602001604051908101604052809291908181526020018280546124949061333e565b80156124e15780601f106124b6576101008083540402835291602001916124e1565b820191906000526020600020905b8154815290600101906020018083116124c457829003601f168201915b5050505050611d02565b90508060011415612510576000878152600c6020526040902061250e9083612851565b505b84511561252757612522888387612767565b612531565b6125318883611ed4565b61253b8284611eee565b817fc5beef08f693b11c316c0c8394a377a0033c9cf701b8cd8afd79cecef60c39528460405161256b9190612f8e565b60405180910390a25050505050505050565b61258884848461205d565b6125948484848461285d565b6116b55760405162461bcd60e51b815260040161091790613634565b6125b982611b14565b6125c257600080fd5b6000828152600e602052604080822080546001600160a01b0319166001600160a01b0385169081179091559051909184917fcbae0978f0621ebb4707a96540f8d3a937104526ceef2cdf1cf07b25c5e48cd49190a35050565b600061262682611b9f565b9050600081600d600086815260200190815260200160002060405160200161264f92919061360a565b6040516020818303038152906040529050600061266b8261141c565b6000868152600c60205260409020909150612686908261295b565b506000858152600e60205260409020546001600160a01b0316156126c1576000858152600e6020526040902080546001600160a01b03191690555b6000818152600d6020526040902080546126da9061333e565b1590506126f8576000818152600d602052604081206126f891612e30565b6127018161221f565b5050505050565b6060600f805461082c9061333e565b60006001600160e01b031982166380ac58cd60e01b148061274857506001600160e01b03198216635b5e139f60e01b145b8061081757506301ffc9a760e01b6001600160e01b0319831614610817565b6127718383612967565b61277e600084848461285d565b610a4d5760405162461bcd60e51b815260040161091790613634565b610a4d838383612aa6565b60008260000182815481106127bc576127bc61351e565b9060005260206000200154905092915050565b6127d9828261232d565b61282f5760405162461bcd60e51b815260206004820152602160248201527f526f6c65733a206163636f756e7420646f6573206e6f74206861766520726f6c6044820152606560f81b6064820152608401610917565b6001600160a01b0316600090815260209190915260409020805460ff19169055565b6000610ec88383612b5e565b60006001600160a01b0384163b1561295057604051630a85bd0160e11b81526001600160a01b0385169063150b7a02906128a1903390899088908890600401613686565b6020604051808303816000875af19250505080156128dc575060408051601f3d908101601f191682019092526128d9918101906136c3565b60015b612936573d80801561290a576040519150601f19603f3d011682016040523d82523d6000602084013e61290f565b606091505b50805161292e5760405162461bcd60e51b815260040161091790613634565b805181602001fd5b6001600160e01b031916630a85bd0160e11b14905061113f565b506001949350505050565b6000610ec88383612bad565b6001600160a01b0382166129bd5760405162461bcd60e51b815260206004820181905260248201527f4552433732313a206d696e7420746f20746865207a65726f20616464726573736044820152606401610917565b6129c681611b14565b15612a135760405162461bcd60e51b815260206004820152601c60248201527f4552433732313a20746f6b656e20616c7265616479206d696e746564000000006044820152606401610917565b612a1f6000838361279a565b6001600160a01b0382166000908152600360205260408120805460019290612a489084906135db565b909155505060008181526002602052604080822080546001600160a01b0319166001600160a01b03861690811790915590518392907fddf252ad1be2c89b69c2b068fc378daa952ba7f163c4a11628f55a4df523b3ef908290a45050565b6001600160a01b038316612b0157612afc81600880546000838152600960205260408120829055600182018355919091527ff3f7a9fe364faab93b216da50a3214154f22a0a2b415b23a84c8169e8b636ee30155565b612b24565b816001600160a01b0316836001600160a01b031614612b2457612b248382612ca0565b6001600160a01b038216612b3b57610a4d81612d3d565b826001600160a01b0316826001600160a01b031614610a4d57610a4d8282612dec565b6000818152600183016020526040812054612ba557508154600181810184556000848152602080822090930184905584548482528286019093526040902091909155610817565b506000610817565b60008181526001830160205260408120548015612c96576000612bd16001836135f3565b8554909150600090612be5906001906135f3565b9050818114612c4a576000866000018281548110612c0557612c0561351e565b9060005260206000200154905080876000018481548110612c2857612c2861351e565b6000918252602080832090910192909255918252600188019052604090208390555b8554869080612c5b57612c5b6136e0565b600190038181906000526020600020016000905590558560010160008681526020019081526020016000206000905560019350505050610817565b6000915050610817565b60006001612cad84611547565b612cb791906135f3565b600083815260076020526040902054909150808214612d0a576001600160a01b03841660009081526006602090815260408083208584528252808320548484528184208190558352600790915290208190555b5060009182526007602090815260408084208490556001600160a01b039094168352600681528383209183525290812055565b600854600090612d4f906001906135f3565b60008381526009602052604081205460088054939450909284908110612d7757612d7761351e565b906000526020600020015490508060088381548110612d9857612d9861351e565b6000918252602080832090910192909255828152600990915260408082208490558582528120556008805480612dd057612dd06136e0565b6001900381819060005260206000200160009055905550505050565b6000612df783611547565b6001600160a01b039093166000908152600660209081526040808320868452825280832085905593825260079052919091209190915550565b508054612e3c9061333e565b6000825580601f10612e4c575050565b601f016020900490600052602060002090810190610fe89190612eee565b828054612e769061333e565b90600052602060002090601f016020900481019282612e985760008555612ede565b82601f10612eb157805160ff1916838001178555612ede565b82800160010185558215612ede579182015b82811115612ede578251825591602001919060010190612ec3565b50612eea929150612eee565b5090565b5b80821115612eea5760008155600101612eef565b6001600160e01b031981168114610fe857600080fd5b600060208284031215612f2b57600080fd5b8135610ec881612f03565b60005b83811015612f51578181015183820152602001612f39565b838111156116b55750506000910152565b60008151808452612f7a816020860160208601612f36565b601f01601f19169290920160200192915050565b602081526000610ec86020830184612f62565b600060208284031215612fb357600080fd5b5035919050565b80356001600160a01b0381168114612fd157600080fd5b919050565b60008060408385031215612fe957600080fd5b612ff283612fba565b946020939093013593505050565b634e487b7160e01b600052604160045260246000fd5b600067ffffffffffffffff8084111561303157613031613000565b604051601f8501601f19908116603f0116810190828211818310171561305957613059613000565b8160405280935085815286868601111561307257600080fd5b858560208301376000602087830101525050509392505050565b600082601f83011261309d57600080fd5b610ec883833560208501613016565b6000602082840312156130be57600080fd5b813567ffffffffffffffff8111156130d557600080fd5b61113f8482850161308c565b6000806000606084860312156130f657600080fd5b6130ff84612fba565b925061310d60208501612fba565b9150604084013590509250925092565b6000806040838503121561313057600080fd5b50508035926020909101359150565b60006020828403121561315157600080fd5b610ec882612fba565b6000806040838503121561316d57600080fd5b61317683612fba565b9150602083013567ffffffffffffffff81111561319257600080fd5b61319e8582860161308c565b9150509250929050565b6000806000606084860312156131bd57600080fd5b6131c684612fba565b925060208401359150604084013567ffffffffffffffff8111156131e957600080fd5b6131f58682870161308c565b9150509250925092565b6000806040838503121561321257600080fd5b61321b83612fba565b91506020830135801515811461323057600080fd5b809150509250929050565b6000806000806080858703121561325157600080fd5b61325a85612fba565b935061326860208601612fba565b925060408501359150606085013567ffffffffffffffff81111561328b57600080fd5b8501601f8101871361329c57600080fd5b6132ab87823560208401613016565b91505092959194509250565b600080604083850312156132ca57600080fd5b823591506132da60208401612fba565b90509250929050565b600080604083850312156132f657600080fd5b82359150602083013567ffffffffffffffff81111561319257600080fd5b6000806040838503121561332757600080fd5b61333083612fba565b91506132da60208401612fba565b600181811c9082168061335257607f821691505b6020821081141561337357634e487b7160e01b600052602260045260246000fd5b50919050565b60208082526022908201527f546f70206c6576656c20646f6d61696e206d757374206265206e6f6e2d656d70604082015261747960f01b606082015260800190565b8054600090600181811c90808316806133d557607f831692505b60208084108214156133f757634e487b7160e01b600052602260045260246000fd5b81801561340b576001811461341c57613449565b60ff19861689528489019650613449565b60008881526020902060005b868110156134415781548b820152908501908301613428565b505084890196505b50505050505092915050565b60008351613467818460208801612f36565b613473818401856133bb565b95945050505050565b6000825161348e818460208701612f36565b9190910192915050565b6020808252818101527f4f776e61626c653a2063616c6c6572206973206e6f7420746865206f776e6572604082015260600190565b60208082526031908201527f4552433732313a207472616e736665722063616c6c6572206973206e6f74206f6040820152701ddb995c881b9bdc88185c1c1c9bdd9959607a1b606082015260800190565b634e487b7160e01b600052603260045260246000fd5b60008351613546818460208801612f36565b83519083019061355a818360208801612f36565b01949350505050565b60008351613575818460208801612f36565b9190910191825250602001919050565b634e487b7160e01b600052601160045260246000fd5b600060ff821660ff84168060ff038211156135b8576135b8613585565b019392505050565b60006000198214156135d4576135d4613585565b5060010190565b600082198211156135ee576135ee613585565b500190565b60008282101561360557613605613585565b500390565b6000835161361c818460208801612f36565b601760f91b90830190815261347360018201856133bb565b60208082526032908201527f4552433732313a207472616e7366657220746f206e6f6e20455243373231526560408201527131b2b4bb32b91034b6b83632b6b2b73a32b960711b606082015260800190565b6001600160a01b03858116825284166020820152604081018390526080606082018190526000906136b990830184612f62565b9695505050505050565b6000602082840312156136d557600080fd5b8151610ec881612f03565b634e487b7160e01b600052603160045260246000fdfea2646970667358221220ce6ca512aa8a004b693b688202ecb6ac1120449f7db146c168c34388179c8c4e64736f6c634300080b0033",
  "linkReferences": {},
  "deployedLinkReferences": {}
}