{
  "_format": "hh-sol-artifact-1",
  "contractName": "AdminControl",
  "sourceName": "contracts/Web3Domains.sol",
  "abi": [
    {
      "inputs": [],
      "stateMutability": "nonpayable",
      "type": "constructor"
    },
    {
      "anonymous": false,
      "inputs": [
        {
          "indexed": true,
          "internalType": "address",
          "name": "previousOwner",
          "type": "address"
        },
        {
          "indexed": true,
          "internalType": "address",
          "name": "newOwner",
          "type": "address"
        }
      ],
      "name": "OwnershipTransferred",
      "type": "event"
    },
    {
      "inputs": [
        {
          "internalType": "address",
          "name": "account",
          "type": "address"
        }
      ],
      "name": "grantMinterRole",
      "outputs": [],
      "stateMutability": "nonpayable",
      "type": "function"
    },
    {
      "inputs": [
        {
          "internalType": "address",
          "name": "account",
          "type": "address"
        }
      ],
      "name": "hasRole",
      "outputs": [
        {
          "internalType": "bool",
          "name": "",
          "type": "bool"
        }
      ],
      "stateMutability": "view",
      "type": "function"
    },
    {
      "inputs": [],
      "name": "owner",
      "outputs": [
        {
          "internalType": "address",
          "name": "",
          "type": "address"
        }
      ],
      "stateMutability": "view",
      "type": "function"
    },
    {
      "inputs": [],
      "name": "renounceOwnership",
      "outputs": [],
      "stateMutability": "nonpayable",
      "type": "function"
    },
    {
      "inputs": [
        {
          "internalType": "address",
          "name": "account",
          "type": "address"
        }
      ],
      "name": "revokeMinterRole",
      "outputs": [],
      "stateMutability": "nonpayable",
      "type": "function"
    },
    {
      "inputs": [
        {
          "internalType": "address",
          "name": "newOwner",
          "type": "address"
        }
      ],
      "name": "transferOwnership",
      "outputs": [],
      "stateMutability": "nonpayable",
      "type": "function"
    }
  ],
  "bytecode": "0x608060405234801561001057600080fd5b5061001a33610028565b61002333610078565b610197565b600080546001600160a01b038381166001600160a01b0319831681178455604051919092169283917f8be0079c531659141344cd1fd0a4f28419497f9722a3daafe3b4186f6b6457e09190a35050565b61009081600161009360201b6102401790919060201c565b50565b61009d8282610114565b156100ef5760405162461bcd60e51b815260206004820152601f60248201527f526f6c65733a206163636f756e7420616c72656164792068617320726f6c650060448201526064015b60405180910390fd5b6001600160a01b0316600090815260209190915260409020805460ff19166001179055565b60006001600160a01b0382166101775760405162461bcd60e51b815260206004820152602260248201527f526f6c65733a206163636f756e7420697320746865207a65726f206164647265604482015261737360f01b60648201526084016100e6565b506001600160a01b03166000908152602091909152604090205460ff1690565b6104c2806101a66000396000f3fe608060405234801561001057600080fd5b50600436106100625760003560e01c80633dd1eb611461006757806369e2f0fb1461007c578063715018a61461008f5780637ef09bca146100975780638da5cb5b146100bf578063f2fde38b146100da575b600080fd5b61007a610075366004610427565b6100ed565b005b61007a61008a366004610427565b61012c565b61007a61015f565b6100aa6100a5366004610427565b610195565b60405190151581526020015b60405180910390f35b6000546040516001600160a01b0390911681526020016100b6565b61007a6100e8366004610427565b6101a8565b6000546001600160a01b031633146101205760405162461bcd60e51b815260040161011790610457565b60405180910390fd5b610129816102bc565b50565b6000546001600160a01b031633146101565760405162461bcd60e51b815260040161011790610457565b610129816102c7565b6000546001600160a01b031633146101895760405162461bcd60e51b815260040161011790610457565b61019360006102d2565b565b60006101a2600183610322565b92915050565b6000546001600160a01b031633146101d25760405162461bcd60e51b815260040161011790610457565b6001600160a01b0381166102375760405162461bcd60e51b815260206004820152602660248201527f4f776e61626c653a206e6577206f776e657220697320746865207a65726f206160448201526564647265737360d01b6064820152608401610117565b610129816102d2565b61024a8282610322565b156102975760405162461bcd60e51b815260206004820152601f60248201527f526f6c65733a206163636f756e7420616c72656164792068617320726f6c65006044820152606401610117565b6001600160a01b0316600090815260209190915260409020805460ff19166001179055565b610129600182610240565b6101296001826103a5565b600080546001600160a01b038381166001600160a01b0319831681178455604051919092169283917f8be0079c531659141344cd1fd0a4f28419497f9722a3daafe3b4186f6b6457e09190a35050565b60006001600160a01b0382166103855760405162461bcd60e51b815260206004820152602260248201527f526f6c65733a206163636f756e7420697320746865207a65726f206164647265604482015261737360f01b6064820152608401610117565b506001600160a01b03166000908152602091909152604090205460ff1690565b6103af8282610322565b6104055760405162461bcd60e51b815260206004820152602160248201527f526f6c65733a206163636f756e7420646f6573206e6f74206861766520726f6c6044820152606560f81b6064820152608401610117565b6001600160a01b0316600090815260209190915260409020805460ff19169055565b60006020828403121561043957600080fd5b81356001600160a01b038116811461045057600080fd5b9392505050565b6020808252818101527f4f776e61626c653a2063616c6c6572206973206e6f7420746865206f776e657260408201526060019056fea264697066735822122092709a204943588accd6d700b80532aaa787738c1f41f941fa785e00d29957f864736f6c634300080c0033",
  "linkReferences": {},
  "deployedLinkReferences": {}
}