{
  "_format": "hh-sol-artifact-1",
  "contractName": "Web3Domains",
  "sourceName": "contracts/Web3Domains.sol",
  "abi": [
    {
      "inputs": [],
      "stateMutability": "nonpayable",
      "type": "constructor"
    },
    {
      "anonymous": false,
      "inputs": [
        {
          "indexed": true,
          "internalType": "address",
          "name": "owner",
          "type": "address"
        },
        {
          "indexed": true,
          "internalType": "address",
          "name": "approved",
          "type": "address"
        },
        {
          "indexed": true,
          "internalType": "uint256",
          "name": "tokenId",
          "type": "uint256"
        }
      ],
      "name": "Approval",
      "type": "event"
    },
    {
      "anonymous": false,
      "inputs": [
        {
          "indexed": true,
          "internalType": "address",
          "name": "owner",
          "type": "address"
        },
        {
          "indexed": true,
          "internalType": "address",
          "name": "operator",
          "type": "address"
        },
        {
          "indexed": false,
          "internalType": "bool",
          "name": "approved",
          "type": "bool"
        }
      ],
      "name": "ApprovalForAll",
      "type": "event"
    },
    {
      "anonymous": false,
      "inputs": [
        {
          "indexed": true,
          "internalType": "uint256",
          "name": "tokenId",
          "type": "uint256"
        },
        {
          "indexed": true,
          "internalType": "string",
          "name": "keyIndex",
          "type": "string"
        },
        {
          "indexed": false,
          "internalType": "string",
          "name": "key",
          "type": "string"
        }
      ],
      "name": "NewKey",
      "type": "event"
    },
    {
      "anonymous": false,
      "inputs": [
        {
          "indexed": true,
          "internalType": "uint256",
          "name": "tokenId",
          "type": "uint256"
        },
        {
          "indexed": false,
          "internalType": "string",
          "name": "tokenUri",
          "type": "string"
        }
      ],
      "name": "NewURI",
      "type": "event"
    },
    {
      "anonymous": false,
      "inputs": [
        {
          "indexed": true,
          "internalType": "address",
          "name": "previousOwner",
          "type": "address"
        },
        {
          "indexed": true,
          "internalType": "address",
          "name": "newOwner",
          "type": "address"
        }
      ],
      "name": "OwnershipTransferred",
      "type": "event"
    },
    {
      "anonymous": false,
      "inputs": [
        {
          "indexed": true,
          "internalType": "uint256",
          "name": "tokenId",
          "type": "uint256"
        }
      ],
      "name": "ResetRecords",
      "type": "event"
    },
    {
      "anonymous": false,
      "inputs": [
        {
          "indexed": true,
          "internalType": "uint256",
          "name": "tokenId",
          "type": "uint256"
        },
        {
          "indexed": true,
          "internalType": "string",
          "name": "keyIndex",
          "type": "string"
        },
        {
          "indexed": true,
          "internalType": "string",
          "name": "valueIndex",
          "type": "string"
        },
        {
          "indexed": false,
          "internalType": "string",
          "name": "key",
          "type": "string"
        },
        {
          "indexed": false,
          "internalType": "string",
          "name": "value",
          "type": "string"
        }
      ],
      "name": "Set",
      "type": "event"
    },
    {
      "anonymous": false,
      "inputs": [
        {
          "indexed": true,
          "internalType": "address",
          "name": "from",
          "type": "address"
        },
        {
          "indexed": true,
          "internalType": "address",
          "name": "to",
          "type": "address"
        },
        {
          "indexed": true,
          "internalType": "uint256",
          "name": "tokenId",
          "type": "uint256"
        }
      ],
      "name": "Transfer",
      "type": "event"
    },
    {
      "inputs": [],
      "name": "_saleIsActive",
      "outputs": [
        {
          "internalType": "bool",
          "name": "",
          "type": "bool"
        }
      ],
      "stateMutability": "view",
      "type": "function"
    },
    {
      "inputs": [
        {
          "internalType": "uint256",
          "name": "",
          "type": "uint256"
        }
      ],
      "name": "_tokenURIs",
      "outputs": [
        {
          "internalType": "string",
          "name": "",
          "type": "string"
        }
      ],
      "stateMutability": "view",
      "type": "function"
    },
    {
      "inputs": [
        {
          "internalType": "string",
          "name": "key",
          "type": "string"
        }
      ],
      "name": "addKey",
      "outputs": [],
      "stateMutability": "nonpayable",
      "type": "function"
    },
    {
      "inputs": [
        {
          "internalType": "address",
          "name": "to",
          "type": "address"
        },
        {
          "internalType": "uint256",
          "name": "tokenId",
          "type": "uint256"
        }
      ],
      "name": "approve",
      "outputs": [],
      "stateMutability": "nonpayable",
      "type": "function"
    },
    {
      "inputs": [
        {
          "internalType": "address",
          "name": "owner",
          "type": "address"
        }
      ],
      "name": "balanceOf",
      "outputs": [
        {
          "internalType": "uint256",
          "name": "",
          "type": "uint256"
        }
      ],
      "stateMutability": "view",
      "type": "function"
    },
    {
      "inputs": [
        {
          "internalType": "uint256",
          "name": "tokenId",
          "type": "uint256"
        }
      ],
      "name": "burn",
      "outputs": [],
      "stateMutability": "nonpayable",
      "type": "function"
    },
    {
      "inputs": [
        {
          "internalType": "uint256",
          "name": "tokenId",
          "type": "uint256"
        },
        {
          "internalType": "string",
          "name": "sub",
          "type": "string"
        }
      ],
      "name": "burnSubDomain",
      "outputs": [],
      "stateMutability": "nonpayable",
      "type": "function"
    },
    {
      "inputs": [
        {
          "internalType": "string",
          "name": "domain",
          "type": "string"
        },
        {
          "internalType": "string",
          "name": "tld",
          "type": "string"
        }
      ],
      "name": "buyDomain",
      "outputs": [],
      "stateMutability": "payable",
      "type": "function"
    },
    {
      "inputs": [
        {
          "internalType": "uint256",
          "name": "tokenId",
          "type": "uint256"
        }
      ],
      "name": "exists",
      "outputs": [
        {
          "internalType": "bool",
          "name": "",
          "type": "bool"
        }
      ],
      "stateMutability": "view",
      "type": "function"
    },
    {
      "inputs": [
        {
          "internalType": "string",
          "name": "label",
          "type": "string"
        }
      ],
      "name": "genTokenId",
      "outputs": [
        {
          "internalType": "uint256",
          "name": "",
          "type": "uint256"
        }
      ],
      "stateMutability": "pure",
      "type": "function"
    },
    {
      "inputs": [
        {
          "internalType": "string",
          "name": "key",
          "type": "string"
        },
        {
          "internalType": "uint256",
          "name": "tokenId",
          "type": "uint256"
        }
      ],
      "name": "get",
      "outputs": [
        {
          "internalType": "string",
          "name": "value",
          "type": "string"
        }
      ],
      "stateMutability": "view",
      "type": "function"
    },
    {
      "inputs": [],
      "name": "get3charTimes",
      "outputs": [
        {
          "internalType": "uint256",
          "name": "",
          "type": "uint256"
        }
      ],
      "stateMutability": "view",
      "type": "function"
    },
    {
      "inputs": [],
      "name": "get4charTimes",
      "outputs": [
        {
          "internalType": "uint256",
          "name": "",
          "type": "uint256"
        }
      ],
      "stateMutability": "view",
      "type": "function"
    },
    {
      "inputs": [
        {
          "internalType": "uint256",
          "name": "tokenId",
          "type": "uint256"
        }
      ],
      "name": "getApproved",
      "outputs": [
        {
          "internalType": "address",
          "name": "",
          "type": "address"
        }
      ],
      "stateMutability": "view",
      "type": "function"
    },
    {
      "inputs": [
        {
          "internalType": "uint256",
          "name": "keyHash",
          "type": "uint256"
        },
        {
          "internalType": "uint256",
          "name": "tokenId",
          "type": "uint256"
        }
      ],
      "name": "getByHash",
      "outputs": [
        {
          "internalType": "string",
          "name": "key",
          "type": "string"
        },
        {
          "internalType": "string",
          "name": "value",
          "type": "string"
        }
      ],
      "stateMutability": "view",
      "type": "function"
    },
    {
      "inputs": [
        {
          "internalType": "address",
          "name": "account",
          "type": "address"
        }
      ],
      "name": "getDomainbyAddress",
      "outputs": [
        {
          "internalType": "uint256[]",
          "name": "tokenIds",
          "type": "uint256[]"
        },
        {
          "internalType": "string[]",
          "name": "domains",
          "type": "string[]"
        }
      ],
      "stateMutability": "view",
      "type": "function"
    },
    {
      "inputs": [
        {
          "internalType": "uint256",
          "name": "keyHash",
          "type": "uint256"
        }
      ],
      "name": "getKey",
      "outputs": [
        {
          "internalType": "string",
          "name": "",
          "type": "string"
        }
      ],
      "stateMutability": "view",
      "type": "function"
    },
    {
      "inputs": [
        {
          "internalType": "uint256[]",
          "name": "hashes",
          "type": "uint256[]"
        }
      ],
      "name": "getKeys",
      "outputs": [
        {
          "internalType": "string[]",
          "name": "values",
          "type": "string[]"
        }
      ],
      "stateMutability": "view",
      "type": "function"
    },
    {
      "inputs": [
        {
          "internalType": "string[]",
          "name": "keys",
          "type": "string[]"
        },
        {
          "internalType": "uint256",
          "name": "tokenId",
          "type": "uint256"
        }
      ],
      "name": "getMany",
      "outputs": [
        {
          "internalType": "string[]",
          "name": "values",
          "type": "string[]"
        }
      ],
      "stateMutability": "view",
      "type": "function"
    },
    {
      "inputs": [
        {
          "internalType": "uint256[]",
          "name": "keyHashes",
          "type": "uint256[]"
        },
        {
          "internalType": "uint256",
          "name": "tokenId",
          "type": "uint256"
        }
      ],
      "name": "getManyByHash",
      "outputs": [
        {
          "internalType": "string[]",
          "name": "keys",
          "type": "string[]"
        },
        {
          "internalType": "string[]",
          "name": "values",
          "type": "string[]"
        }
      ],
      "stateMutability": "view",
      "type": "function"
    },
    {
      "inputs": [
        {
          "internalType": "string",
          "name": "domain",
          "type": "string"
        }
      ],
      "name": "getOwner",
      "outputs": [
        {
          "internalType": "address",
          "name": "",
          "type": "address"
        }
      ],
      "stateMutability": "view",
      "type": "function"
    },
    {
      "inputs": [],
      "name": "getPrice",
      "outputs": [
        {
          "internalType": "uint256",
          "name": "",
          "type": "uint256"
        }
      ],
      "stateMutability": "view",
      "type": "function"
    },
    {
      "inputs": [],
      "name": "getPrice3Char",
      "outputs": [
        {
          "internalType": "uint256",
          "name": "",
          "type": "uint256"
        }
      ],
      "stateMutability": "view",
      "type": "function"
    },
    {
      "inputs": [],
      "name": "getPrice4Char",
      "outputs": [
        {
          "internalType": "uint256",
          "name": "",
          "type": "uint256"
        }
      ],
      "stateMutability": "view",
      "type": "function"
    },
    {
      "inputs": [
        {
          "internalType": "address",
          "name": "account",
          "type": "address"
        }
      ],
      "name": "grantMinterRole",
      "outputs": [],
      "stateMutability": "nonpayable",
      "type": "function"
    },
    {
      "inputs": [
        {
          "internalType": "address",
          "name": "account",
          "type": "address"
        }
      ],
      "name": "hasRole",
      "outputs": [
        {
          "internalType": "bool",
          "name": "",
          "type": "bool"
        }
      ],
      "stateMutability": "view",
      "type": "function"
    },
    {
      "inputs": [
        {
          "internalType": "address",
          "name": "owner",
          "type": "address"
        },
        {
          "internalType": "address",
          "name": "operator",
          "type": "address"
        }
      ],
      "name": "isApprovedForAll",
      "outputs": [
        {
          "internalType": "bool",
          "name": "",
          "type": "bool"
        }
      ],
      "stateMutability": "view",
      "type": "function"
    },
    {
      "inputs": [
        {
          "internalType": "address",
          "name": "account",
          "type": "address"
        },
        {
          "internalType": "uint256",
          "name": "tokenId",
          "type": "uint256"
        }
      ],
      "name": "isApprovedOrOwner",
      "outputs": [
        {
          "internalType": "bool",
          "name": "",
          "type": "bool"
        }
      ],
      "stateMutability": "view",
      "type": "function"
    },
    {
      "inputs": [
        {
          "internalType": "string",
          "name": "_tld",
          "type": "string"
        }
      ],
      "name": "isTLD",
      "outputs": [
        {
          "internalType": "bool",
          "name": "",
          "type": "bool"
        }
      ],
      "stateMutability": "view",
      "type": "function"
    },
    {
      "inputs": [],
      "name": "name",
      "outputs": [
        {
          "internalType": "string",
          "name": "",
          "type": "string"
        }
      ],
      "stateMutability": "view",
      "type": "function"
    },
    {
      "inputs": [],
      "name": "owner",
      "outputs": [
        {
          "internalType": "address",
          "name": "",
          "type": "address"
        }
      ],
      "stateMutability": "view",
      "type": "function"
    },
    {
      "inputs": [
        {
          "internalType": "uint256",
          "name": "tokenId",
          "type": "uint256"
        }
      ],
      "name": "ownerOf",
      "outputs": [
        {
          "internalType": "address",
          "name": "",
          "type": "address"
        }
      ],
      "stateMutability": "view",
      "type": "function"
    },
    {
      "inputs": [
        {
          "internalType": "string[]",
          "name": "keys",
          "type": "string[]"
        },
        {
          "internalType": "string[]",
          "name": "values",
          "type": "string[]"
        },
        {
          "internalType": "uint256",
          "name": "tokenId",
          "type": "uint256"
        }
      ],
      "name": "reconfigure",
      "outputs": [],
      "stateMutability": "nonpayable",
      "type": "function"
    },
    {
      "inputs": [
        {
          "internalType": "address",
          "name": "to",
          "type": "address"
        },
        {
          "internalType": "string",
          "name": "domain",
          "type": "string"
        },
        {
          "internalType": "string",
          "name": "tld",
          "type": "string"
        }
      ],
      "name": "registerDomain",
      "outputs": [],
      "stateMutability": "nonpayable",
      "type": "function"
    },
    {
      "inputs": [
        {
          "internalType": "address",
          "name": "to",
          "type": "address"
        },
        {
          "internalType": "uint256",
          "name": "tokenId",
          "type": "uint256"
        },
        {
          "internalType": "string",
          "name": "sub",
          "type": "string"
        }
      ],
      "name": "registerSubDomain",
      "outputs": [],
      "stateMutability": "nonpayable",
      "type": "function"
    },
    {
      "inputs": [],
      "name": "removeReverse",
      "outputs": [],
      "stateMutability": "nonpayable",
      "type": "function"
    },
    {
      "inputs": [],
      "name": "renounceOwnership",
      "outputs": [],
      "stateMutability": "nonpayable",
      "type": "function"
    },
    {
      "inputs": [
        {
          "internalType": "uint256",
          "name": "tokenId",
          "type": "uint256"
        }
      ],
      "name": "reset",
      "outputs": [],
      "stateMutability": "nonpayable",
      "type": "function"
    },
    {
      "inputs": [
        {
          "internalType": "address",
          "name": "account",
          "type": "address"
        }
      ],
      "name": "reverseOf",
      "outputs": [
        {
          "internalType": "string",
          "name": "",
          "type": "string"
        }
      ],
      "stateMutability": "view",
      "type": "function"
    },
    {
      "inputs": [
        {
          "internalType": "address",
          "name": "account",
          "type": "address"
        }
      ],
      "name": "revokeMinterRole",
      "outputs": [],
      "stateMutability": "nonpayable",
      "type": "function"
    },
    {
      "inputs": [
        {
          "internalType": "address",
          "name": "from",
          "type": "address"
        },
        {
          "internalType": "address",
          "name": "to",
          "type": "address"
        },
        {
          "internalType": "uint256",
          "name": "tokenId",
          "type": "uint256"
        }
      ],
      "name": "safeTransferFrom",
      "outputs": [],
      "stateMutability": "nonpayable",
      "type": "function"
    },
    {
      "inputs": [
        {
          "internalType": "address",
          "name": "from",
          "type": "address"
        },
        {
          "internalType": "address",
          "name": "to",
          "type": "address"
        },
        {
          "internalType": "uint256",
          "name": "tokenId",
          "type": "uint256"
        },
        {
          "internalType": "bytes",
          "name": "_data",
          "type": "bytes"
        }
      ],
      "name": "safeTransferFrom",
      "outputs": [],
      "stateMutability": "nonpayable",
      "type": "function"
    },
    {
      "inputs": [
        {
          "internalType": "string",
          "name": "key",
          "type": "string"
        },
        {
          "internalType": "string",
          "name": "value",
          "type": "string"
        },
        {
          "internalType": "uint256",
          "name": "tokenId",
          "type": "uint256"
        }
      ],
      "name": "set",
      "outputs": [],
      "stateMutability": "nonpayable",
      "type": "function"
    },
    {
      "inputs": [
        {
          "internalType": "address",
          "name": "operator",
          "type": "address"
        },
        {
          "internalType": "bool",
          "name": "approved",
          "type": "bool"
        }
      ],
      "name": "setApprovalForAll",
      "outputs": [],
      "stateMutability": "nonpayable",
      "type": "function"
    },
    {
      "inputs": [
        {
          "internalType": "string",
          "name": "_uri",
          "type": "string"
        }
      ],
      "name": "setBaseURI",
      "outputs": [],
      "stateMutability": "nonpayable",
      "type": "function"
    },
    {
      "inputs": [
        {
          "internalType": "uint256",
          "name": "keyHash",
          "type": "uint256"
        },
        {
          "internalType": "string",
          "name": "value",
          "type": "string"
        },
        {
          "internalType": "uint256",
          "name": "tokenId",
          "type": "uint256"
        }
      ],
      "name": "setByHash",
      "outputs": [],
      "stateMutability": "nonpayable",
      "type": "function"
    },
    {
      "inputs": [
        {
          "internalType": "string[]",
          "name": "keys",
          "type": "string[]"
        },
        {
          "internalType": "string[]",
          "name": "values",
          "type": "string[]"
        },
        {
          "internalType": "uint256",
          "name": "tokenId",
          "type": "uint256"
        }
      ],
      "name": "setMany",
      "outputs": [],
      "stateMutability": "nonpayable",
      "type": "function"
    },
    {
      "inputs": [
        {
          "internalType": "uint256[]",
          "name": "keyHashes",
          "type": "uint256[]"
        },
        {
          "internalType": "string[]",
          "name": "values",
          "type": "string[]"
        },
        {
          "internalType": "uint256",
          "name": "tokenId",
          "type": "uint256"
        }
      ],
      "name": "setManyByHash",
      "outputs": [],
      "stateMutability": "nonpayable",
      "type": "function"
    },
    {
      "inputs": [
        {
          "internalType": "address",
          "name": "to",
          "type": "address"
        },
        {
          "internalType": "uint256",
          "name": "tokenId",
          "type": "uint256"
        }
      ],
      "name": "setOwner",
      "outputs": [],
      "stateMutability": "nonpayable",
      "type": "function"
    },
    {
      "inputs": [
        {
          "internalType": "uint256",
          "name": "price",
          "type": "uint256"
        }
      ],
      "name": "setPrice",
      "outputs": [],
      "stateMutability": "nonpayable",
      "type": "function"
    },
    {
      "inputs": [
        {
          "internalType": "uint256",
          "name": "tokenId",
          "type": "uint256"
        }
      ],
      "name": "setReverse",
      "outputs": [],
      "stateMutability": "nonpayable",
      "type": "function"
    },
    {
      "inputs": [
        {
          "internalType": "string",
          "name": "domain",
          "type": "string"
        }
      ],
      "name": "setReverse",
      "outputs": [],
      "stateMutability": "nonpayable",
      "type": "function"
    },
    {
      "inputs": [],
      "name": "setSaleState",
      "outputs": [],
      "stateMutability": "nonpayable",
      "type": "function"
    },
    {
      "inputs": [
        {
          "internalType": "string",
          "name": "_tld",
          "type": "string"
        }
      ],
      "name": "setTLD",
      "outputs": [],
      "stateMutability": "nonpayable",
      "type": "function"
    },
    {
      "inputs": [
        {
          "internalType": "uint256",
          "name": "__3chartime",
          "type": "uint256"
        },
        {
          "internalType": "uint256",
          "name": "__4chartime",
          "type": "uint256"
        }
      ],
      "name": "setTimes",
      "outputs": [],
      "stateMutability": "nonpayable",
      "type": "function"
    },
    {
      "inputs": [
        {
          "internalType": "uint256",
          "name": "tokenId",
          "type": "uint256"
        },
        {
          "internalType": "uint256",
          "name": "index",
          "type": "uint256"
        }
      ],
      "name": "subTokenIdByIndex",
      "outputs": [
        {
          "internalType": "uint256",
          "name": "",
          "type": "uint256"
        }
      ],
      "stateMutability": "view",
      "type": "function"
    },
    {
      "inputs": [
        {
          "internalType": "uint256",
          "name": "tokenId",
          "type": "uint256"
        }
      ],
      "name": "subTokenIdCount",
      "outputs": [
        {
          "internalType": "uint256",
          "name": "",
          "type": "uint256"
        }
      ],
      "stateMutability": "view",
      "type": "function"
    },
    {
      "inputs": [
        {
          "internalType": "bytes4",
          "name": "interfaceId",
          "type": "bytes4"
        }
      ],
      "name": "supportsInterface",
      "outputs": [
        {
          "internalType": "bool",
          "name": "",
          "type": "bool"
        }
      ],
      "stateMutability": "view",
      "type": "function"
    },
    {
      "inputs": [],
      "name": "symbol",
      "outputs": [
        {
          "internalType": "string",
          "name": "",
          "type": "string"
        }
      ],
      "stateMutability": "view",
      "type": "function"
    },
    {
      "inputs": [
        {
          "internalType": "uint256",
          "name": "index",
          "type": "uint256"
        }
      ],
      "name": "tokenByIndex",
      "outputs": [
        {
          "internalType": "uint256",
          "name": "",
          "type": "uint256"
        }
      ],
      "stateMutability": "view",
      "type": "function"
    },
    {
      "inputs": [
        {
          "internalType": "address",
          "name": "owner",
          "type": "address"
        },
        {
          "internalType": "uint256",
          "name": "index",
          "type": "uint256"
        }
      ],
      "name": "tokenOfOwnerByIndex",
      "outputs": [
        {
          "internalType": "uint256",
          "name": "",
          "type": "uint256"
        }
      ],
      "stateMutability": "view",
      "type": "function"
    },
    {
      "inputs": [
        {
          "internalType": "uint256",
          "name": "tokenId",
          "type": "uint256"
        }
      ],
      "name": "tokenURI",
      "outputs": [
        {
          "internalType": "string",
          "name": "",
          "type": "string"
        }
      ],
      "stateMutability": "view",
      "type": "function"
    },
    {
      "inputs": [],
      "name": "totalSupply",
      "outputs": [
        {
          "internalType": "uint256",
          "name": "",
          "type": "uint256"
        }
      ],
      "stateMutability": "view",
      "type": "function"
    },
    {
      "inputs": [
        {
          "internalType": "address",
          "name": "from",
          "type": "address"
        },
        {
          "internalType": "address",
          "name": "to",
          "type": "address"
        },
        {
          "internalType": "uint256",
          "name": "tokenId",
          "type": "uint256"
        }
      ],
      "name": "transferFrom",
      "outputs": [],
      "stateMutability": "nonpayable",
      "type": "function"
    },
    {
      "inputs": [
        {
          "internalType": "address",
          "name": "newOwner",
          "type": "address"
        }
      ],
      "name": "transferOwnership",
      "outputs": [],
      "stateMutability": "nonpayable",
      "type": "function"
    },
    {
      "inputs": [],
      "name": "withdraw",
      "outputs": [],
      "stateMutability": "payable",
      "type": "function"
    }
  ],
  "bytecode": "0x60a06040819052600060808190526200001b916013916200025c565b506014805460ff19166001179055670de0b6b3a7640000601555600a60165560056017553480156200004c57600080fd5b50604080518082018252600b81526a57656233446f6d61696e7360a81b60208083019182528351808501909452600384526215ccd160ea1b9084015281519192916200009b916000916200025c565b508051620000b19060019060208401906200025c565b505050620000ce620000c8620000df60201b60201c565b620000e3565b620000d93362000135565b6200033f565b3390565b600a80546001600160a01b038381166001600160a01b0319831681179093556040519116919082907f8be0079c531659141344cd1fd0a4f28419497f9722a3daafe3b4186f6b6457e090600090a35050565b6200015081600b6200015360201b620027901790919060201c565b50565b6200015f8282620001d7565b15620001b25760405162461bcd60e51b815260206004820152601f60248201527f526f6c65733a206163636f756e7420616c72656164792068617320726f6c650060448201526064015b60405180910390fd5b6001600160a01b0316600090815260209190915260409020805460ff19166001179055565b60006001600160a01b0382166200023c5760405162461bcd60e51b815260206004820152602260248201527f526f6c65733a206163636f756e7420697320746865207a65726f206164647265604482015261737360f01b6064820152608401620001a9565b506001600160a01b03166000908152602091909152604090205460ff1690565b8280546200026a9062000302565b90600052602060002090601f0160209004810192826200028e5760008555620002d9565b82601f10620002a957805160ff1916838001178555620002d9565b82800160010185558215620002d9579182015b82811115620002d9578251825591602001919060010190620002bc565b50620002e7929150620002eb565b5090565b5b80821115620002e75760008155600101620002ec565b600181811c908216806200031757607f821691505b602082108114156200033957634e487b7160e01b600052602260045260246000fd5b50919050565b614d51806200034f6000396000f3fe6080604052600436106103d95760003560e01c806365064370116101fd578063ab3b87fe11610118578063c87b56dd116100ab578063e985e9c51161007a578063e985e9c514610b60578063ec129eea14610ba9578063f25eb5c114610bc9578063f2fde38b14610bde578063f5c1f76e14610bfe57600080fd5b8063c87b56dd14610aeb578063ce92b33e14610b0b578063d231563014610b2b578063e5f9da8814610b4057600080fd5b8063bb5b27e1116100e7578063bb5b27e114610a68578063bc7c8ceb14610a88578063c479a80414610ab6578063c6438cb814610ad657600080fd5b8063ab3b87fe146109da578063ad59e226146109fa578063b85afd2814610a1a578063b88d4fde14610a4857600080fd5b80637ef09bca1161019057806398a602431161015f57806398a602431461096557806398d5fdca146109855780639cbf529d1461099a578063a22cb465146109ba57600080fd5b80637ef09bca146108f25780638da5cb5b1461091257806391b7f5ed1461093057806395d89b411461095057600080fd5b8063715018a6116101cc578063715018a61461087d57806376f909ae1461089257806377e9d00b146108b25780637e37479e146108d257600080fd5b806365064370146107fc578063672b9f811461080f57806369e2f0fb1461083d57806370a082311461085d57600080fd5b8063384e9a55116102f85780634aaf4a121161028b57806350382c1a1161025a57806350382c1a1461076257806350b3a1441461078257806355f804b3146107a25780635d893ba0146107c25780636352211e146107dc57600080fd5b80634aaf4a12146106ed5780634cd637b51461070d5780634f558e79146107225780634f6ccce71461074257600080fd5b806342966c68116102c757806342966c681461066d578063430c20811461068d57806347c81699146106ad5780634a72584d146106cd57600080fd5b8063384e9a55146106055780633ccfd60b146106255780633dd1eb611461062d57806342842e0e1461064d57600080fd5b80631ed40559116103705780632dc50d9a1161033f5780632dc50d9a146105905780632f745c59146105b0578063310bd74b146105d0578063358deb1c146105f057600080fd5b80631ed405591461051b578063224348361461053057806323b872dd1461055057806327f189751461057057600080fd5b80630bb78ec1116103ac5780630bb78ec11461048f57806318160ddd146104af5780631bd8cc1a146104ce5780631be5e7ed146104fb57600080fd5b806301ffc9a7146103de57806306fdde0314610413578063081812fc14610435578063095ea7b31461046d575b600080fd5b3480156103ea57600080fd5b506103fe6103f9366004613fb3565b610c1e565b60405190151581526020015b60405180910390f35b34801561041f57600080fd5b50610428610c2f565b60405161040a9190614028565b34801561044157600080fd5b5061045561045036600461403b565b610cc1565b6040516001600160a01b03909116815260200161040a565b34801561047957600080fd5b5061048d610488366004614070565b610d4e565b005b34801561049b57600080fd5b506104286104aa36600461403b565b610e64565b3480156104bb57600080fd5b506008545b60405190815260200161040a565b3480156104da57600080fd5b506104ee6104e93660046140e5565b610efe565b60405161040a9190614182565b34801561050757600080fd5b506104286105163660046141d6565b610ff4565b34801561052757600080fd5b5061048d61103f565b34801561053c57600080fd5b5061048d61054b36600461420d565b61107d565b34801561055c57600080fd5b5061048d61056b36600461422f565b6110b2565b34801561057c57600080fd5b5061048d61058b36600461426b565b6110ed565b34801561059c57600080fd5b506104c06105ab36600461420d565b611115565b3480156105bc57600080fd5b506104c06105cb366004614070565b61114a565b3480156105dc57600080fd5b5061048d6105eb36600461403b565b6111e0565b3480156105fc57600080fd5b506016546104c0565b34801561061157600080fd5b5061048d61062036600461403b565b611200565b61048d611241565b34801561063957600080fd5b5061048d6106483660046142de565b611291565b34801561065957600080fd5b5061048d61066836600461422f565b6112c7565b34801561067957600080fd5b5061048d61068836600461403b565b6112e2565b34801561069957600080fd5b506103fe6106a8366004614070565b6113bf565b3480156106b957600080fd5b5061048d6106c83660046142f9565b6113cb565b3480156106d957600080fd5b5061048d6106e836600461435a565b6113eb565b3480156106f957600080fd5b50610455610708366004614457565b611411565b34801561071957600080fd5b506104c0611456565b34801561072e57600080fd5b506103fe61073d36600461403b565b611472565b34801561074e57600080fd5b506104c061075d36600461403b565b61147d565b34801561076e57600080fd5b5061048d61077d366004614457565b611510565b34801561078e57600080fd5b506104c061079d366004614457565b611543565b3480156107ae57600080fd5b5061048d6107bd366004614457565b611583565b3480156107ce57600080fd5b506014546103fe9060ff1681565b3480156107e857600080fd5b506104556107f736600461403b565b6115c0565b61048d61080a36600461448b565b611637565b34801561081b57600080fd5b5061082f61082a36600461420d565b61193c565b60405161040a9291906144ee565b34801561084957600080fd5b5061048d6108583660046142de565b611954565b34801561086957600080fd5b506104c06108783660046142de565b611987565b34801561088957600080fd5b5061048d611a0e565b34801561089e57600080fd5b506104c06108ad36600461403b565b611a42565b3480156108be57600080fd5b5061048d6108cd36600461451c565b611a6d565b3480156108de57600080fd5b506104286108ed3660046142de565b611cb3565b3480156108fe57600080fd5b506103fe61090d3660046142de565b611dfb565b34801561091e57600080fd5b50600a546001600160a01b0316610455565b34801561093c57600080fd5b5061048d61094b36600461403b565b611e08565b34801561095c57600080fd5b50610428611e37565b34801561097157600080fd5b5061048d61098036600461458f565b611e46565b34801561099157600080fd5b506015546104c0565b3480156109a657600080fd5b5061048d6109b5366004614457565b611e7a565b3480156109c657600080fd5b5061048d6109d53660046145db565b611ec9565b3480156109e657600080fd5b5061048d6109f5366004614070565b611f8e565b348015610a0657600080fd5b5061048d610a15366004614457565b611fb4565b348015610a2657600080fd5b50610a3a610a353660046140e5565b61200d565b60405161040a929190614617565b348015610a5457600080fd5b5061048d610a6336600461463c565b61212f565b348015610a7457600080fd5b50610428610a8336600461403b565b61216a565b348015610a9457600080fd5b50610aa8610aa33660046142de565b61220c565b60405161040a9291906146b7565b348015610ac257600080fd5b5061048d610ad136600461470e565b6123ef565b348015610ae257600080fd5b506104c061240c565b348015610af757600080fd5b50610428610b0636600461403b565b61241d565b348015610b1757600080fd5b5061048d610b2636600461426b565b612587565b348015610b3757600080fd5b506017546104c0565b348015610b4c57600080fd5b506103fe610b5b366004614457565b6125a7565b348015610b6c57600080fd5b506103fe610b7b36600461474a565b6001600160a01b03918216600090815260056020908152604080832093909416825291909152205460ff1690565b348015610bb557600080fd5b5061048d610bc436600461426b565b6125e4565b348015610bd557600080fd5b5061048d612604565b348015610bea57600080fd5b5061048d610bf93660046142de565b61264c565b348015610c0a57600080fd5b506104ee610c19366004614774565b6126e4565b6000610c298261280c565b92915050565b606060008054610c3e906147b5565b80601f0160208091040260200160405190810160405280929190818152602001828054610c6a906147b5565b8015610cb75780601f10610c8c57610100808354040283529160200191610cb7565b820191906000526020600020905b815481529060010190602001808311610c9a57829003601f168201915b5050505050905090565b6000610ccc82612831565b610d325760405162461bcd60e51b815260206004820152602c60248201527f4552433732313a20617070726f76656420717565727920666f72206e6f6e657860448201526b34b9ba32b73a103a37b5b2b760a11b60648201526084015b60405180910390fd5b506000908152600460205260409020546001600160a01b031690565b6000610d59826115c0565b9050806001600160a01b0316836001600160a01b03161415610dc75760405162461bcd60e51b815260206004820152602160248201527f4552433732313a20617070726f76616c20746f2063757272656e74206f776e656044820152603960f91b6064820152608401610d29565b336001600160a01b0382161480610de35750610de38133610b7b565b610e555760405162461bcd60e51b815260206004820152603860248201527f4552433732313a20617070726f76652063616c6c6572206973206e6f74206f7760448201527f6e6572206e6f7220617070726f76656420666f7220616c6c00000000000000006064820152608401610d29565b610e5f838361284e565b505050565b60106020526000908152604090208054610e7d906147b5565b80601f0160208091040260200160405190810160405280929190818152602001828054610ea9906147b5565b8015610ef65780601f10610ecb57610100808354040283529160200191610ef6565b820191906000526020600020905b815481529060010190602001808311610ed957829003601f168201915b505050505081565b6060826001600160401b03811115610f1857610f186143ac565b604051908082528060200260200182016040528015610f4b57816020015b6060815260200190600190039081610f365790505b50905060005b83811015610fec57610fbc858583818110610f6e57610f6e6147f0565b9050602002810190610f809190614806565b8080601f0160208091040260200160405190810160405280939291908181526020018383808284376000920191909152508792506128bc915050565b828281518110610fce57610fce6147f0565b60200260200101819052508080610fe490614862565b915050610f51565b509392505050565b606061103784848080601f0160208091040260200160405190810160405280939291908181526020018383808284376000920191909152508692506128bc915050565b949350505050565b600a546001600160a01b031633146110695760405162461bcd60e51b8152600401610d299061487d565b6014805460ff19811660ff90911615179055565b600a546001600160a01b031633146110a75760405162461bcd60e51b8152600401610d299061487d565b601691909155601755565b6110bd335b826128f1565b6110d95760405162461bcd60e51b8152600401610d29906148b2565b6110e2816129d7565b610e5f838383612a44565b806110f7336110b7565b61110057600080fd5b61110d8686868686612bef565b505050505050565b60008161112184611a42565b1161112b57600080fd5b6000838152600f602052604090206111439083612c52565b9392505050565b600061115583611987565b82106111b75760405162461bcd60e51b815260206004820152602b60248201527f455243373231456e756d657261626c653a206f776e657220696e646578206f7560448201526a74206f6620626f756e647360a81b6064820152608401610d29565b506001600160a01b03919091166000908152600660209081526040808320938352929052205490565b806111ea336110b7565b6111f357600080fd5b6111fc826129d7565b5050565b3361120b81836128f1565b6112275760405162461bcd60e51b8152600401610d2990614903565b6001600160a01b0316600090815260116020526040902055565b600a546001600160a01b0316331461126b5760405162461bcd60e51b8152600401610d299061487d565b60405133904780156108fc02916000818181858888f1935050505061128f57600080fd5b565b600a546001600160a01b031633146112bb5760405162461bcd60e51b8152600401610d299061487d565b6112c481612c5e565b50565b610e5f8383836040518060200160405280600081525061212f565b6112eb336110b7565b6113505760405162461bcd60e51b815260206004820152603060248201527f4552433732314275726e61626c653a2063616c6c6572206973206e6f74206f7760448201526f1b995c881b9bdc88185c1c1c9bdd995960821b6064820152608401610d29565b60008181526010602052604090208054611369906147b5565b15905061138757600081815260106020526040812061138791613ed2565b33600090815260116020526040902054156113ad57336000908152601160205260408120555b6113b6816129d7565b6112c481612c69565b600061114383836128f1565b806113d5336110b7565b6113de57600080fd5b61110d8686868686612d10565b806113f5336110b7565b6113fe57600080fd5b61140a85858585612def565b5050505050565b60008061141d83612e8f565b90506000816040516020016114329190614953565b6040516020818303038152906040528051906020012060001c9050611037816115c0565b600061146d60175461146760155490565b90612fe9565b905090565b6000610c2982612831565b600061148860085490565b82106114eb5760405162461bcd60e51b815260206004820152602c60248201527f455243373231456e756d657261626c653a20676c6f62616c20696e646578206f60448201526b7574206f6620626f756e647360a01b6064820152608401610d29565b600882815481106114fe576114fe6147f0565b90600052602060002001549050919050565b6112c4816040516020016115249190614953565b6040516020818303038152906040528051906020012060001c82612ff5565b600081516000141561155457600080fd5b816040516020016115659190614953565b60408051601f19818403018152919052805160209091012092915050565b600a546001600160a01b031633146115ad5760405162461bcd60e51b8152600401610d299061487d565b80516111fc906013906020840190613f0c565b6000818152600260205260408120546001600160a01b031680610c295760405162461bcd60e51b815260206004820152602960248201527f4552433732313a206f776e657220717565727920666f72206e6f6e657869737460448201526832b73a103a37b5b2b760b91b6064820152608401610d29565b60145460ff166116895760405162461bcd60e51b815260206004820152601a60248201527f53616c65206d7573742062652061637469766520746f206275790000000000006044820152606401610d29565b80516116a75760405162461bcd60e51b8152600401610d299061496f565b6116b0816125a7565b15156001146117015760405162461bcd60e51b815260206004820152601a60248201527f546f70206c6576656c20646f6d61696e206e6f742065786973740000000000006044820152606401610d29565b81518061174b5760405162461bcd60e51b8152602060048201526018602482015277446f6d61696e206d757374206265206e6f6e2d656d70747960401b6044820152606401610d29565b600381101561176c5760405162461bcd60e51b8152600401610d29906149b1565b61177583613021565b156117b75760405162461bcd60e51b8152602060048201526012602482015271111bdb585a5b881b9bdd081cdd5c1c1bdc9d60721b6044820152606401610d29565b80600314156117ee576117cf60165461146760155490565b3410156117ee5760405162461bcd60e51b8152600401610d29906149f6565b80600414156118255761180660175461146760155490565b3410156118255760405162461bcd60e51b8152600401610d29906149f6565b6005811061184f5760155434101561184f5760405162461bcd60e51b8152600401610d29906149f6565b600061185a84612e8f565b9050600061186784612e8f565b9050818160405160200161187c929190614a4b565b6040516020818303038152906040529150600061189883611543565b90506118a381612831565b156118e85760405162461bcd60e51b8152602060048201526015602482015274446f6d61696e20616c72656164792065786973747360581b6044820152606401610d29565b6118f23382613080565b6118fc818461309a565b807fc5beef08f693b11c316c0c8394a377a0033c9cf701b8cd8afd79cecef60c39528460405161192c9190614028565b60405180910390a2505050505050565b6060806119498484613123565b909590945092505050565b600a546001600160a01b0316331461197e5760405162461bcd60e51b8152600401610d299061487d565b6112c481613144565b60006001600160a01b0382166119f25760405162461bcd60e51b815260206004820152602a60248201527f4552433732313a2062616c616e636520717565727920666f7220746865207a65604482015269726f206164647265737360b01b6064820152608401610d29565b506001600160a01b031660009081526003602052604090205490565b600a546001600160a01b03163314611a385760405162461bcd60e51b8152600401610d299061487d565b61128f600061314f565b6000611a4d82612831565b611a5657600080fd5b6000828152600f60205260409020610c29906131a1565b600a546001600160a01b03163314611a975760405162461bcd60e51b8152600401610d299061487d565b6001600160a01b038316611ae25760405162461bcd60e51b8152602060048201526012602482015271151bc81859191c995cdcc81a5cc81b9d5b1b60721b6044820152606401610d29565b8051611b005760405162461bcd60e51b8152600401610d299061496f565b611b09816125a7565b1515600114611b5a5760405162461bcd60e51b815260206004820152601a60248201527f546f70206c6576656c20646f6d61696e206e6f742065786973740000000000006044820152606401610d29565b8151611ba35760405162461bcd60e51b8152602060048201526018602482015277446f6d61696e206d757374206265206e6f6e2d656d70747960401b6044820152606401610d29565b600382511015611bc55760405162461bcd60e51b8152600401610d29906149b1565b611bce82613021565b15611c105760405162461bcd60e51b8152602060048201526012602482015271111bdb585a5b881b9bdd081cdd5c1c1bdc9d60721b6044820152606401610d29565b6000611c1b83612e8f565b90506000611c2883612e8f565b90508181604051602001611c3d929190614a4b565b60405160208183030381529060405291506000611c5983611543565b9050611c6481612831565b15611ca95760405162461bcd60e51b8152602060048201526015602482015274446f6d61696e20616c72656164792065786973747360581b6044820152606401610d29565b6118f28682613080565b6001600160a01b03811660009081526011602052604090205460609080611cec5760405162461bcd60e51b8152600401610d2990614a87565b611cf683826128f1565b611d5c5760405162461bcd60e51b815260206004820152603160248201527f526576657273655265736f6c7665723a204143434f554e545f49535f4e4f545f60448201527020a8282927ab22a22fa7a92fa7aba722a960791b6064820152608401610d29565b60008181526010602052604090208054611d75906147b5565b80601f0160208091040260200160405190810160405280929190818152602001828054611da1906147b5565b8015611dee5780601f10611dc357610100808354040283529160200191611dee565b820191906000526020600020905b815481529060010190602001808311611dd157829003601f168201915b5050505050915050919050565b6000610c29600b836131ab565b600a546001600160a01b03163314611e325760405162461bcd60e51b8152600401610d299061487d565b601555565b606060018054610c3e906147b5565b81611e50336110b7565b611e5957600080fd5b611e748484846040518060200160405280600081525061322e565b50505050565b6000611e8582611543565b905033611e9281836128f1565b611eae5760405162461bcd60e51b8152600401610d2990614903565b6001600160a01b031660009081526011602052604090205550565b6001600160a01b038216331415611f225760405162461bcd60e51b815260206004820152601960248201527f4552433732313a20617070726f766520746f2063616c6c6572000000000000006044820152606401610d29565b3360008181526005602090815260408083206001600160a01b03871680855290835292819020805460ff191686151590811790915590519081529192917f17307eab39ab6107e8899845ad3d59bd9653f200f220920489ca2b5937696c31910160405180910390a35050565b80611f98336110b7565b611fa157600080fd5b610e5f611fad836115c0565b8484612a44565b600a546001600160a01b03163314611fde5760405162461bcd60e51b8152600401610d299061487d565b6000611fe982611543565b60008181526012602090815260409091208451929350610e5f929091850190613f0c565b606080836001600160401b03811115612028576120286143ac565b60405190808252806020026020018201604052801561205b57816020015b60608152602001906001900390816120465790505b509150836001600160401b03811115612076576120766143ac565b6040519080825280602002602001820160405280156120a957816020015b60608152602001906001900390816120945790505b50905060005b84811015612126576120d98686838181106120cc576120cc6147f0565b9050602002013585613123565b8483815181106120eb576120eb6147f0565b60200260200101848481518110612104576121046147f0565b602002602001018290528290525050808061211e90614862565b9150506120af565b50935093915050565b61213933836128f1565b6121555760405162461bcd60e51b8152600401610d29906148b2565b61215e826129d7565b611e74848484846133fb565b6000818152600c60205260409020805460609190612187906147b5565b80601f01602080910402602001604051908101604052809291908181526020018280546121b3906147b5565b80156122005780601f106121d557610100808354040283529160200191612200565b820191906000526020600020905b8154815290600101906020018083116121e357829003601f168201915b50505050509050919050565b606080600061221a84611987565b9050600081116122465760405162461bcd60e51b81526020600482015260006024820152604401610d29565b6000816001600160401b03811115612260576122606143ac565b604051908082528060200260200182016040528015612289578160200160208202803683370190505b5090506000826001600160401b038111156122a6576122a66143ac565b6040519080825280602002602001820160405280156122d957816020015b60608152602001906001900390816122c45790505b50905060005b838110156123e35760006122f3888361114a565b600081815260106020526040812080549293509091612311906147b5565b80601f016020809104026020016040519081016040528092919081815260200182805461233d906147b5565b801561238a5780601f1061235f5761010080835404028352916020019161238a565b820191906000526020600020905b81548152906001019060200180831161236d57829003601f168201915b50505050509050818584815181106123a4576123a46147f0565b602002602001018181525050808484815181106123c3576123c36147f0565b6020026020010181905250505080806123db90614862565b9150506122df565b50909590945092505050565b816123f9336110b7565b61240257600080fd5b610e5f838361342e565b600061146d60165461146760155490565b606061242882612831565b61248c5760405162461bcd60e51b815260206004820152602f60248201527f4552433732314d657461646174613a2055524920717565727920666f72206e6f60448201526e3732bc34b9ba32b73a103a37b5b2b760891b6064820152608401610d29565b600082815260106020526040812080546124a5906147b5565b80601f01602080910402602001604051908101604052809291908181526020018280546124d1906147b5565b801561251e5780601f106124f35761010080835404028352916020019161251e565b820191906000526020600020905b81548152906001019060200180831161250157829003601f168201915b50505050509050600061252f6134da565b9050805160001415612542575092915050565b81511561257457808260405160200161255c929190614acf565b60405160208183030381529060405292505050919050565b808460405160200161255c929190614afe565b80612591336110b7565b61259a57600080fd5b61110d86868686866134e9565b600080806125b484611543565b60008181526012602052604090208054919250906125d1906147b5565b1590506125dd57600191505b5092915050565b806125ee336110b7565b6125f757600080fd5b61110d8686868686613557565b33600081815260116020526040902054806126315760405162461bcd60e51b8152600401610d2990614a87565b506001600160a01b0316600090815260116020526040812055565b600a546001600160a01b031633146126765760405162461bcd60e51b8152600401610d299061487d565b6001600160a01b0381166126db5760405162461bcd60e51b815260206004820152602660248201527f4f776e61626c653a206e6577206f776e657220697320746865207a65726f206160448201526564647265737360d01b6064820152608401610d29565b6112c48161314f565b6060816001600160401b038111156126fe576126fe6143ac565b60405190808252806020026020018201604052801561273157816020015b606081526020019060019003908161271c5790505b50905060005b828110156125dd57612760848483818110612754576127546147f0565b9050602002013561216a565b828281518110612772576127726147f0565b6020026020010181905250808061278890614862565b915050612737565b61279a82826131ab565b156127e75760405162461bcd60e51b815260206004820152601f60248201527f526f6c65733a206163636f756e7420616c72656164792068617320726f6c65006044820152606401610d29565b6001600160a01b0316600090815260209190915260409020805460ff19166001179055565b60006001600160e01b0319821663780e9d6360e01b1480610c295750610c298261356d565b6000908152600260205260409020546001600160a01b0316151590565b600081815260046020526040902080546001600160a01b0319166001600160a01b0384169081179091558190612883826115c0565b6001600160a01b03167f8c5be1e5ebec7d5bd14f71427d1e84f3dd0314c0f7b2291e5b200ac8c7c3b92560405160405180910390a45050565b6060611143836040516020016128d29190614953565b6040516020818303038152906040528051906020012060001c836135bd565b60006128fc82612831565b61295d5760405162461bcd60e51b815260206004820152602c60248201527f4552433732313a206f70657261746f7220717565727920666f72206e6f6e657860448201526b34b9ba32b73a103a37b5b2b760a11b6064820152608401610d29565b6000612968836115c0565b9050806001600160a01b0316846001600160a01b031614806129a35750836001600160a01b031661299884610cc1565b6001600160a01b0316145b8061103757506001600160a01b0380821660009081526005602090815260408083209388168352929052205460ff16611037565b6129e08161367c565b6040516020016129f291815260200190565b60408051601f1981840301815282825280516020918201206000858152600e9092529181209190915582917f185c30856dadb58bf097c1f665a52ada7029752dbcad008ea3fefc73bee8c9fe9190a250565b826001600160a01b0316612a57826115c0565b6001600160a01b031614612abf5760405162461bcd60e51b815260206004820152602960248201527f4552433732313a207472616e73666572206f6620746f6b656e2074686174206960448201526839903737ba1037bbb760b91b6064820152608401610d29565b6001600160a01b038216612b215760405162461bcd60e51b8152602060048201526024808201527f4552433732313a207472616e7366657220746f20746865207a65726f206164646044820152637265737360e01b6064820152608401610d29565b612b2c8383836136a8565b612b3760008261284e565b6001600160a01b0383166000908152600360205260408120805460019290612b60908490614b20565b90915550506001600160a01b0382166000908152600360205260408120805460019290612b8e908490614b37565b909155505060008181526002602052604080822080546001600160a01b0319166001600160a01b0386811691821790925591518493918716917fddf252ad1be2c89b69c2b068fc378daa952ba7f163c4a11628f55a4df523b3ef91a4505050565b60005b8481101561110d57612c40868683818110612c0f57612c0f6147f0565b90506020020135858584818110612c2857612c286147f0565b9050602002810190612c3a9190614806565b85612def565b80612c4a81614862565b915050612bf2565b600061114383836136b3565b6112c4600b82612790565b6000612c74826115c0565b9050612c82816000846136a8565b612c8d60008361284e565b6001600160a01b0381166000908152600360205260408120805460019290612cb6908490614b20565b909155505060008281526002602052604080822080546001600160a01b0319169055518391906001600160a01b038416907fddf252ad1be2c89b69c2b068fc378daa952ba7f163c4a11628f55a4df523b3ef908390a45050565b60008585604051602001612d25929190614b4f565b60408051601f198184030181528282528051602091820120601f8901829004820284018201909252878352909250612d799183918990899081908401838280828437600092019190915250612ff592505050565b61110d8187878080601f01602080910402602001604051908101604052809392919081815260200183838082843760009201919091525050604080516020601f8b0181900481028201810190925289815292508991508890819084018382808284376000920191909152508892506136dd915050565b612df884613818565b612e445760405162461bcd60e51b815260206004820152601c60248201527f5265636f726453746f726167653a204b45595f4e4f545f464f554e44000000006044820152606401610d29565b611e7484612e518661216a565b85858080601f0160208091040260200160405190810160405280939291908181526020018383808284376000920191909152508792506136dd915050565b60606000829050600081516001600160401b03811115612eb157612eb16143ac565b6040519080825280601f01601f191660200182016040528015612edb576020820181803683370190505b50905060005b8251811015610fec576041838281518110612efe57612efe6147f0565b016020015160f81c10801590612f2e5750605a838281518110612f2357612f236147f0565b016020015160f81c11155b15612f9057828181518110612f4557612f456147f0565b602001015160f81c60f81b60f81c6020612f5f9190614b5f565b60f81b828281518110612f7457612f746147f0565b60200101906001600160f81b031916908160001a905350612fd7565b828181518110612fa257612fa26147f0565b602001015160f81c60f81b828281518110612fbf57612fbf6147f0565b60200101906001600160f81b031916908160001a9053505b80612fe181614862565b915050612ee1565b60006111438284614b84565b612ffe82613818565b6111fc576000828152600c602090815260409091208251610e5f92840190613f0c565b805160009060018381019184010182805b8284101561307757835160ff16602e81141561305657613053600184614b37565b92505b613061600186614b37565b945050808061306f90614862565b915050613032565b50949350505050565b6111fc82826040518060200160405280600081525061383e565b6130a382612831565b6131045760405162461bcd60e51b815260206004820152602c60248201527f4552433732314d657461646174613a2055524920736574206f66206e6f6e657860448201526b34b9ba32b73a103a37b5b2b760a11b6064820152608401610d29565b60008281526010602090815260409091208251610e5f92840190613f0c565b60608061312f8461216a565b915061313b84846135bd565b90509250929050565b6112c4600b82613871565b600a80546001600160a01b038381166001600160a01b0319831681179093556040519116919082907f8be0079c531659141344cd1fd0a4f28419497f9722a3daafe3b4186f6b6457e090600090a35050565b6000610c29825490565b60006001600160a01b03821661320e5760405162461bcd60e51b815260206004820152602260248201527f526f6c65733a206163636f756e7420697320746865207a65726f206164647265604482015261737360f01b6064820152608401610d29565b506001600160a01b03166000908152602091909152604090205460ff1690565b6001600160a01b03841661324157600080fd5b815161324c57600080fd5b61325582613021565b1561325f57600080fd5b61326883612831565b61327157600080fd5b600061327c83612e8f565b9050600081601060008781526020019081526020016000206040516020016132a5929190614ba3565b604051602081830303815290604052905060006132c182611543565b905060006133696010600089815260200190815260200160002080546132e6906147b5565b80601f0160208091040260200160405190810160405280929190818152602001828054613312906147b5565b801561335f5780601f106133345761010080835404028352916020019161335f565b820191906000526020600020905b81548152906001019060200180831161334257829003601f168201915b5050505050613021565b9050806001141561338e576000878152600f6020526040902061338c90836138f3565b505b8451156133a5576133a088838761383e565b6133af565b6133af8883613080565b6133b9828461309a565b817fc5beef08f693b11c316c0c8394a377a0033c9cf701b8cd8afd79cecef60c3952846040516133e99190614028565b60405180910390a25050505050505050565b613406848484612a44565b613412848484846138ff565b611e745760405162461bcd60e51b8152600401610d2990614c63565b600061343982612e8f565b905060008160106000868152602001908152602001600020604051602001613462929190614ba3565b6040516020818303038152906040529050600061347e82611543565b6000868152600f6020526040902090915061349990826139fd565b50600081815260106020526040902080546134b3906147b5565b1590506134d15760008181526010602052604081206134d191613ed2565b61140a81612c69565b606060138054610c3e906147b5565b60005b8481101561110d57613545868683818110613509576135096147f0565b905060200281019061351b9190614806565b86868581811061352d5761352d6147f0565b905060200281019061353f9190614806565b86612d10565b8061354f81614862565b9150506134ec565b613560816129d7565b61140a85858585856134e9565b60006001600160e01b031982166380ac58cd60e01b148061359e57506001600160e01b03198216635b5e139f60e01b145b80610c2957506301ffc9a760e01b6001600160e01b0319831614610c29565b6060600d60006135cc8461367c565b8152602001908152602001600020600084815260200190815260200160002080546135f6906147b5565b80601f0160208091040260200160405190810160405280929190818152602001828054613622906147b5565b801561366f5780601f106136445761010080835404028352916020019161366f565b820191906000526020600020905b81548152906001019060200180831161365257829003601f168201915b5050505050905092915050565b6000818152600e6020526040812054156136a4576000828152600e6020526040902054610c29565b5090565b610e5f838383613a09565b60008260000182815481106136ca576136ca6147f0565b9060005260206000200154905092915050565b600d60006136ea8361367c565b815260200190815260200160002060008581526020019081526020016000208054613714906147b5565b1515905061376b578260405161372a9190614953565b6040518091039020817f7ae4f661958fbecc2f77be6b0eb280d2a6f604b29e1e7221c82b9da0c4af7f86856040516137629190614028565b60405180910390a35b81600d60006137798461367c565b8152602001908152602001600020600086815260200190815260200160002090805190602001906137ab929190613f0c565b50816040516137ba9190614953565b6040518091039020836040516137d09190614953565b6040518091039020827f851ffe8e74d5015261dba0a1f9e1b0e5d42c5af5d2ad1908fee897c7d80a0d92868660405161380a9291906144ee565b60405180910390a450505050565b6000818152600c602052604081208054829190613834906147b5565b9050119050919050565b6138488383613ac1565b61385560008484846138ff565b610e5f5760405162461bcd60e51b8152600401610d2990614c63565b61387b82826131ab565b6138d15760405162461bcd60e51b815260206004820152602160248201527f526f6c65733a206163636f756e7420646f6573206e6f74206861766520726f6c6044820152606560f81b6064820152608401610d29565b6001600160a01b0316600090815260209190915260409020805460ff19169055565b60006111438383613c00565b60006001600160a01b0384163b156139f257604051630a85bd0160e11b81526001600160a01b0385169063150b7a0290613943903390899088908890600401614cb5565b6020604051808303816000875af192505050801561397e575060408051601f3d908101601f1916820190925261397b91810190614ce8565b60015b6139d8573d8080156139ac576040519150601f19603f3d011682016040523d82523d6000602084013e6139b1565b606091505b5080516139d05760405162461bcd60e51b8152600401610d2990614c63565b805181602001fd5b6001600160e01b031916630a85bd0160e11b149050611037565b506001949350505050565b60006111438383613c4f565b6001600160a01b038316613a6457613a5f81600880546000838152600960205260408120829055600182018355919091527ff3f7a9fe364faab93b216da50a3214154f22a0a2b415b23a84c8169e8b636ee30155565b613a87565b816001600160a01b0316836001600160a01b031614613a8757613a878382613d42565b6001600160a01b038216613a9e57610e5f81613ddf565b826001600160a01b0316826001600160a01b031614610e5f57610e5f8282613e8e565b6001600160a01b038216613b175760405162461bcd60e51b815260206004820181905260248201527f4552433732313a206d696e7420746f20746865207a65726f20616464726573736044820152606401610d29565b613b2081612831565b15613b6d5760405162461bcd60e51b815260206004820152601c60248201527f4552433732313a20746f6b656e20616c7265616479206d696e746564000000006044820152606401610d29565b613b79600083836136a8565b6001600160a01b0382166000908152600360205260408120805460019290613ba2908490614b37565b909155505060008181526002602052604080822080546001600160a01b0319166001600160a01b03861690811790915590518392907fddf252ad1be2c89b69c2b068fc378daa952ba7f163c4a11628f55a4df523b3ef908290a45050565b6000818152600183016020526040812054613c4757508154600181810184556000848152602080822090930184905584548482528286019093526040902091909155610c29565b506000610c29565b60008181526001830160205260408120548015613d38576000613c73600183614b20565b8554909150600090613c8790600190614b20565b9050818114613cec576000866000018281548110613ca757613ca76147f0565b9060005260206000200154905080876000018481548110613cca57613cca6147f0565b6000918252602080832090910192909255918252600188019052604090208390555b8554869080613cfd57613cfd614d05565b600190038181906000526020600020016000905590558560010160008681526020019081526020016000206000905560019350505050610c29565b6000915050610c29565b60006001613d4f84611987565b613d599190614b20565b600083815260076020526040902054909150808214613dac576001600160a01b03841660009081526006602090815260408083208584528252808320548484528184208190558352600790915290208190555b5060009182526007602090815260408084208490556001600160a01b039094168352600681528383209183525290812055565b600854600090613df190600190614b20565b60008381526009602052604081205460088054939450909284908110613e1957613e196147f0565b906000526020600020015490508060088381548110613e3a57613e3a6147f0565b6000918252602080832090910192909255828152600990915260408082208490558582528120556008805480613e7257613e72614d05565b6001900381819060005260206000200160009055905550505050565b6000613e9983611987565b6001600160a01b039093166000908152600660209081526040808320868452825280832085905593825260079052919091209190915550565b508054613ede906147b5565b6000825580601f10613eee575050565b601f0160209004906000526020600020908101906112c49190613f88565b828054613f18906147b5565b90600052602060002090601f016020900481019282613f3a5760008555613f80565b82601f10613f5357805160ff1916838001178555613f80565b82800160010185558215613f80579182015b82811115613f80578251825591602001919060010190613f65565b506136a49291505b5b808211156136a45760008155600101613f89565b6001600160e01b0319811681146112c457600080fd5b600060208284031215613fc557600080fd5b813561114381613f9d565b60005b83811015613feb578181015183820152602001613fd3565b83811115611e745750506000910152565b60008151808452614014816020860160208601613fd0565b601f01601f19169290920160200192915050565b6020815260006111436020830184613ffc565b60006020828403121561404d57600080fd5b5035919050565b80356001600160a01b038116811461406b57600080fd5b919050565b6000806040838503121561408357600080fd5b61408c83614054565b946020939093013593505050565b60008083601f8401126140ac57600080fd5b5081356001600160401b038111156140c357600080fd5b6020830191508360208260051b85010111156140de57600080fd5b9250929050565b6000806000604084860312156140fa57600080fd5b83356001600160401b0381111561411057600080fd5b61411c8682870161409a565b909790965060209590950135949350505050565b6000815180845260208085019450848260051b860182860160005b85811015614175578383038952614163838351613ffc565b9885019892509084019060010161414b565b5090979650505050505050565b6020815260006111436020830184614130565b60008083601f8401126141a757600080fd5b5081356001600160401b038111156141be57600080fd5b6020830191508360208285010111156140de57600080fd5b6000806000604084860312156141eb57600080fd5b83356001600160401b0381111561420157600080fd5b61411c86828701614195565b6000806040838503121561422057600080fd5b50508035926020909101359150565b60008060006060848603121561424457600080fd5b61424d84614054565b925061425b60208501614054565b9150604084013590509250925092565b60008060008060006060868803121561428357600080fd5b85356001600160401b038082111561429a57600080fd5b6142a689838a0161409a565b909750955060208801359150808211156142bf57600080fd5b506142cc8882890161409a565b96999598509660400135949350505050565b6000602082840312156142f057600080fd5b61114382614054565b60008060008060006060868803121561431157600080fd5b85356001600160401b038082111561432857600080fd5b61433489838a01614195565b9097509550602088013591508082111561434d57600080fd5b506142cc88828901614195565b6000806000806060858703121561437057600080fd5b8435935060208501356001600160401b0381111561438d57600080fd5b61439987828801614195565b9598909750949560400135949350505050565b634e487b7160e01b600052604160045260246000fd5b60006001600160401b03808411156143dc576143dc6143ac565b604051601f8501601f19908116603f01168101908282118183101715614404576144046143ac565b8160405280935085815286868601111561441d57600080fd5b858560208301376000602087830101525050509392505050565b600082601f83011261444857600080fd5b611143838335602085016143c2565b60006020828403121561446957600080fd5b81356001600160401b0381111561447f57600080fd5b61103784828501614437565b6000806040838503121561449e57600080fd5b82356001600160401b03808211156144b557600080fd5b6144c186838701614437565b935060208501359150808211156144d757600080fd5b506144e485828601614437565b9150509250929050565b6040815260006145016040830185613ffc565b82810360208401526145138185613ffc565b95945050505050565b60008060006060848603121561453157600080fd5b61453a84614054565b925060208401356001600160401b038082111561455657600080fd5b61456287838801614437565b9350604086013591508082111561457857600080fd5b5061458586828701614437565b9150509250925092565b6000806000606084860312156145a457600080fd5b6145ad84614054565b92506020840135915060408401356001600160401b038111156145cf57600080fd5b61458586828701614437565b600080604083850312156145ee57600080fd5b6145f783614054565b91506020830135801515811461460c57600080fd5b809150509250929050565b60408152600061462a6040830185614130565b82810360208401526145138185614130565b6000806000806080858703121561465257600080fd5b61465b85614054565b935061466960208601614054565b92506040850135915060608501356001600160401b0381111561468b57600080fd5b8501601f8101871361469c57600080fd5b6146ab878235602084016143c2565b91505092959194509250565b604080825283519082018190526000906020906060840190828701845b828110156146f0578151845292840192908401906001016146d4565b505050838103828501526147048186614130565b9695505050505050565b6000806040838503121561472157600080fd5b8235915060208301356001600160401b0381111561473e57600080fd5b6144e485828601614437565b6000806040838503121561475d57600080fd5b61476683614054565b915061313b60208401614054565b6000806020838503121561478757600080fd5b82356001600160401b0381111561479d57600080fd5b6147a98582860161409a565b90969095509350505050565b600181811c908216806147c957607f821691505b602082108114156147ea57634e487b7160e01b600052602260045260246000fd5b50919050565b634e487b7160e01b600052603260045260246000fd5b6000808335601e1984360301811261481d57600080fd5b8301803591506001600160401b0382111561483757600080fd5b6020019150368190038213156140de57600080fd5b634e487b7160e01b600052601160045260246000fd5b60006000198214156148765761487661484c565b5060010190565b6020808252818101527f4f776e61626c653a2063616c6c6572206973206e6f7420746865206f776e6572604082015260600190565b60208082526031908201527f4552433732313a207472616e736665722063616c6c6572206973206e6f74206f6040820152701ddb995c881b9bdc88185c1c1c9bdd9959607a1b606082015260800190565b60208082526030908201527f526576657273655265736f6c7665723a2053454e4445525f49535f4e4f545f4160408201526f28282927ab22a22fa7a92fa7aba722a960811b606082015260800190565b60008251614965818460208701613fd0565b9190910192915050565b60208082526022908201527f546f70206c6576656c20646f6d61696e206d757374206265206e6f6e2d656d70604082015261747960f01b606082015260800190565b60208082526025908201527f446f6d61696e207265717569726573206174206c656173742033206368617261604082015264637465727360d81b606082015260800190565b60208082526035908201527f496e73756666696369656e7420546f6b656e206f7220546f6b656e2076616c7560408201527419481cd95b9d081a5cc81b9bdd0818dbdc9c9958dd605a1b606082015260800190565b60008351614a5d818460208801613fd0565b601760f91b9083019081528351614a7b816001840160208801613fd0565b01600101949350505050565b60208082526028908201527f526576657273655265736f6c7665723a20524556455253455f5245434f52445f60408201526749535f454d50545960c01b606082015260800190565b60008351614ae1818460208801613fd0565b835190830190614af5818360208801613fd0565b01949350505050565b60008351614b10818460208801613fd0565b9190910191825250602001919050565b600082821015614b3257614b3261484c565b500390565b60008219821115614b4a57614b4a61484c565b500190565b8183823760009101908152919050565b600060ff821660ff84168060ff03821115614b7c57614b7c61484c565b019392505050565b6000816000190483118215151615614b9e57614b9e61484c565b500290565b600083516020614bb68285838901613fd0565b601760f91b918401918252845460019060009080831c81841680614bdb57607f821691505b858210811415614bf957634e487b7160e01b84526022600452602484fd5b808015614c0d5760018114614c2257614c53565b60ff1984168887015282880186019450614c53565b60008b81526020902060005b84811015614c495781548a8201890152908701908801614c2e565b5050858389010194505b50929a9950505050505050505050565b60208082526032908201527f4552433732313a207472616e7366657220746f206e6f6e20455243373231526560408201527131b2b4bb32b91034b6b83632b6b2b73a32b960711b606082015260800190565b6001600160a01b038581168252841660208201526040810183905260806060820181905260009061470490830184613ffc565b600060208284031215614cfa57600080fd5b815161114381613f9d565b634e487b7160e01b600052603160045260246000fdfea26469706673582212206feaa28cf8f296c3d29f36820d6c1dc84f1ffe2d824543e95527abf83180d46964736f6c634300080c0033",
  "linkReferences": {},
  "deployedLinkReferences": {}
}